{"abi":[{"type":"constructor","inputs":[{"name":"_initBaseURI","type":"string","internalType":"string"},{"name":"_initContractURI","type":"string","internalType":"string"}],"stateMutability":"nonpayable"},{"type":"function","name":"approve","inputs":[{"name":"to","type":"address","internalType":"address"},{"name":"tokenId","type":"uint256","internalType":"uint256"}],"outputs":[],"stateMutability":"nonpayable"},{"type":"function","name":"balanceOf","inputs":[{"name":"owner","type":"address","internalType":"address"}],"outputs":[{"name":"","type":"uint256","internalType":"uint256"}],"stateMutability":"view"},{"type":"function","name":"contractURI","inputs":[],"outputs":[{"name":"","type":"string","internalType":"string"}],"stateMutability":"view"},{"type":"function","name":"createNewGPPT","inputs":[{"name":"_to","type":"address","internalType":"address"},{"name":"_partyNum","type":"string","internalType":"string"}],"outputs":[],"stateMutability":"nonpayable"},{"type":"function","name":"getApproved","inputs":[{"name":"tokenId","type":"uint256","internalType":"uint256"}],"outputs":[{"name":"","type":"address","internalType":"address"}],"stateMutability":"view"},{"type":"function","name":"getPartyNum","inputs":[{"name":"_tokenId","type":"uint256","internalType":"uint256"}],"outputs":[{"name":"","type":"string","internalType":"string"}],"stateMutability":"view"},{"type":"function","name":"isApprovedForAll","inputs":[{"name":"owner","type":"address","internalType":"address"},{"name":"operator","type":"address","internalType":"address"}],"outputs":[{"name":"","type":"bool","internalType":"bool"}],"stateMutability":"view"},{"type":"function","name":"name","inputs":[],"outputs":[{"name":"","type":"string","internalType":"string"}],"stateMutability":"view"},{"type":"function","name":"owner","inputs":[],"outputs":[{"name":"","type":"address","internalType":"address"}],"stateMutability":"view"},{"type":"function","name":"ownerOf","inputs":[{"name":"tokenId","type":"uint256","internalType":"uint256"}],"outputs":[{"name":"","type":"address","internalType":"address"}],"stateMutability":"view"},{"type":"function","name":"renounceOwnership","inputs":[],"outputs":[],"stateMutability":"nonpayable"},{"type":"function","name":"safeTransferFrom","inputs":[{"name":"from","type":"address","internalType":"address"},{"name":"to","type":"address","internalType":"address"},{"name":"tokenId","type":"uint256","internalType":"uint256"}],"outputs":[],"stateMutability":"nonpayable"},{"type":"function","name":"safeTransferFrom","inputs":[{"name":"from","type":"address","internalType":"address"},{"name":"to","type":"address","internalType":"address"},{"name":"tokenId","type":"uint256","internalType":"uint256"},{"name":"data","type":"bytes","internalType":"bytes"}],"outputs":[],"stateMutability":"nonpayable"},{"type":"function","name":"setApprovalForAll","inputs":[{"name":"operator","type":"address","internalType":"address"},{"name":"approved","type":"bool","internalType":"bool"}],"outputs":[],"stateMutability":"nonpayable"},{"type":"function","name":"setBaseURI","inputs":[{"name":"_newBaseURI","type":"string","internalType":"string"}],"outputs":[],"stateMutability":"nonpayable"},{"type":"function","name":"setContractURI","inputs":[{"name":"_newContractURI","type":"string","internalType":"string"}],"outputs":[],"stateMutability":"nonpayable"},{"type":"function","name":"supportsInterface","inputs":[{"name":"interfaceId","type":"bytes4","internalType":"bytes4"}],"outputs":[{"name":"","type":"bool","internalType":"bool"}],"stateMutability":"view"},{"type":"function","name":"symbol","inputs":[],"outputs":[{"name":"","type":"string","internalType":"string"}],"stateMutability":"view"},{"type":"function","name":"tokenURI","inputs":[{"name":"tokenId","type":"uint256","internalType":"uint256"}],"outputs":[{"name":"","type":"string","internalType":"string"}],"stateMutability":"view"},{"type":"function","name":"transferFrom","inputs":[{"name":"from","type":"address","internalType":"address"},{"name":"to","type":"address","internalType":"address"},{"name":"tokenId","type":"uint256","internalType":"uint256"}],"outputs":[],"stateMutability":"nonpayable"},{"type":"function","name":"transferOwnership","inputs":[{"name":"newOwner","type":"address","internalType":"address"}],"outputs":[],"stateMutability":"nonpayable"},{"type":"event","name":"Approval","inputs":[{"name":"owner","type":"address","indexed":true,"internalType":"address"},{"name":"approved","type":"address","indexed":true,"internalType":"address"},{"name":"tokenId","type":"uint256","indexed":true,"internalType":"uint256"}],"anonymous":false},{"type":"event","name":"ApprovalForAll","inputs":[{"name":"owner","type":"address","indexed":true,"internalType":"address"},{"name":"operator","type":"address","indexed":true,"internalType":"address"},{"name":"approved","type":"bool","indexed":false,"internalType":"bool"}],"anonymous":false},{"type":"event","name":"BaseURIUpdated","inputs":[{"name":"newBaseURI","type":"string","indexed":false,"internalType":"string"}],"anonymous":false},{"type":"event","name":"BatchMetadataUpdate","inputs":[{"name":"_fromTokenId","type":"uint256","indexed":false,"internalType":"uint256"},{"name":"_toTokenId","type":"uint256","indexed":false,"internalType":"uint256"}],"anonymous":false},{"type":"event","name":"ContractURIUpdated","inputs":[{"name":"newContractURI","type":"string","indexed":false,"internalType":"string"}],"anonymous":false},{"type":"event","name":"MetadataUpdate","inputs":[{"name":"_tokenId","type":"uint256","indexed":false,"internalType":"uint256"}],"anonymous":false},{"type":"event","name":"OwnershipTransferred","inputs":[{"name":"previousOwner","type":"address","indexed":true,"internalType":"address"},{"name":"newOwner","type":"address","indexed":true,"internalType":"address"}],"anonymous":false},{"type":"event","name":"TokenCreated","inputs":[{"name":"to","type":"address","indexed":true,"internalType":"address"},{"name":"tokenId","type":"uint256","indexed":true,"internalType":"uint256"},{"name":"partyNumber","type":"string","indexed":false,"internalType":"string"}],"anonymous":false},{"type":"event","name":"Transfer","inputs":[{"name":"from","type":"address","indexed":true,"internalType":"address"},{"name":"to","type":"address","indexed":true,"internalType":"address"},{"name":"tokenId","type":"uint256","indexed":true,"internalType":"uint256"}],"anonymous":false},{"type":"error","name":"ERC721IncorrectOwner","inputs":[{"name":"sender","type":"address","internalType":"address"},{"name":"tokenId","type":"uint256","internalType":"uint256"},{"name":"owner","type":"address","internalType":"address"}]},{"type":"error","name":"ERC721InsufficientApproval","inputs":[{"name":"operator","type":"address","internalType":"address"},{"name":"tokenId","type":"uint256","internalType":"uint256"}]},{"type":"error","name":"ERC721InvalidApprover","inputs":[{"name":"approver","type":"address","internalType":"address"}]},{"type":"error","name":"ERC721InvalidOperator","inputs":[{"name":"operator","type":"address","internalType":"address"}]},{"type":"error","name":"ERC721InvalidOwner","inputs":[{"name":"owner","type":"address","internalType":"address"}]},{"type":"error","name":"ERC721InvalidReceiver","inputs":[{"name":"receiver","type":"address","internalType":"address"}]},{"type":"error","name":"ERC721InvalidSender","inputs":[{"name":"sender","type":"address","internalType":"address"}]},{"type":"error","name":"ERC721NonexistentToken","inputs":[{"name":"tokenId","type":"uint256","internalType":"uint256"}]},{"type":"error","name":"OwnableInvalidOwner","inputs":[{"name":"owner","type":"address","internalType":"address"}]},{"type":"error","name":"OwnableUnauthorizedAccount","inputs":[{"name":"account","type":"address","internalType":"address"}]}],"bytecode":{"object":"0x608060405234801561000f575f5ffd5b506040516133d63803806133d68339818101604052810190610031919061037d565b336040518060400160405280601981526020017f47656e6573697350617274696369706174696f6e546f6b656e000000000000008152506040518060400160405280600481526020017f4750505400000000000000000000000000000000000000000000000000000000815250815f90816100ac9190610603565b5080600190816100bc9190610603565b5050505f73ffffffffffffffffffffffffffffffffffffffff168173ffffffffffffffffffffffffffffffffffffffff160361012f575f6040517f1e4fbdf70000000000000000000000000000000000000000000000000000000081526004016101269190610711565b60405180910390fd5b61013e8161016d60201b60201c565b505f60088190555081600990816101559190610603565b5080600a90816101659190610603565b50505061072a565b5f60075f9054906101000a900473ffffffffffffffffffffffffffffffffffffffff1690508160075f6101000a81548173ffffffffffffffffffffffffffffffffffffffff021916908373ffffffffffffffffffffffffffffffffffffffff1602179055508173ffffffffffffffffffffffffffffffffffffffff168173ffffffffffffffffffffffffffffffffffffffff167f8be0079c531659141344cd1fd0a4f28419497f9722a3daafe3b4186f6b6457e060405160405180910390a35050565b5f604051905090565b5f5ffd5b5f5ffd5b5f5ffd5b5f5ffd5b5f601f19601f8301169050919050565b7f4e487b71000000000000000000000000000000000000000000000000000000005f52604160045260245ffd5b61028f82610249565b810181811067ffffffffffffffff821117156102ae576102ad610259565b5b80604052505050565b5f6102c0610230565b90506102cc8282610286565b919050565b5f67ffffffffffffffff8211156102eb576102ea610259565b5b6102f482610249565b9050602081019050919050565b8281835e5f83830152505050565b5f61032161031c846102d1565b6102b7565b90508281526020810184848401111561033d5761033c610245565b5b610348848285610301565b509392505050565b5f82601f83011261036457610363610241565b5b815161037484826020860161030f565b91505092915050565b5f5f6040838503121561039357610392610239565b5b5f83015167ffffffffffffffff8111156103b0576103af61023d565b5b6103bc85828601610350565b925050602083015167ffffffffffffffff8111156103dd576103dc61023d565b5b6103e985828601610350565b9150509250929050565b5f81519050919050565b7f4e487b71000000000000000000000000000000000000000000000000000000005f52602260045260245ffd5b5f600282049050600182168061044157607f821691505b602082108103610454576104536103fd565b5b50919050565b5f819050815f5260205f209050919050565b5f6020601f8301049050919050565b5f82821b905092915050565b5f600883026104b67fffffffffffffffffffffffffffffffffffffffffffffffffffffffffffffffff8261047b565b6104c0868361047b565b95508019841693508086168417925050509392505050565b5f819050919050565b5f819050919050565b5f6105046104ff6104fa846104d8565b6104e1565b6104d8565b9050919050565b5f819050919050565b61051d836104ea565b6105316105298261050b565b848454610487565b825550505050565b5f5f905090565b610548610539565b610553818484610514565b505050565b5b818110156105765761056b5f82610540565b600181019050610559565b5050565b601f8211156105bb5761058c8161045a565b6105958461046c565b810160208510156105a4578190505b6105b86105b08561046c565b830182610558565b50505b505050565b5f82821c905092915050565b5f6105db5f19846008026105c0565b1980831691505092915050565b5f6105f383836105cc565b9150826002028217905092915050565b61060c826103f3565b67ffffffffffffffff81111561062557610624610259565b5b61062f825461042a565b61063a82828561057a565b5f60209050601f83116001811461066b575f8415610659578287015190505b61066385826105e8565b8655506106ca565b601f1984166106798661045a565b5f5b828110156106a05784890151825560018201915060208501945060208101905061067b565b868310156106bd57848901516106b9601f8916826105cc565b8355505b6001600288020188555050505b505050505050565b5f73ffffffffffffffffffffffffffffffffffffffff82169050919050565b5f6106fb826106d2565b9050919050565b61070b816106f1565b82525050565b5f6020820190506107245f830184610702565b92915050565b612c9f806107375f395ff3fe608060405234801561000f575f5ffd5b5060043610610135575f3560e01c806386e9e0ff116100b6578063a22cb4651161007a578063a22cb46514610335578063b88d4fde14610351578063c87b56dd1461036d578063e8a3d4851461039d578063e985e9c5146103bb578063f2fde38b146103eb57610135565b806386e9e0ff146102915780638da5cb5b146102ad578063938e3d7b146102cb57806395d89b41146102e75780639822cd841461030557610135565b806342842e0e116100fd57806342842e0e146101ef57806355f804b31461020b5780636352211e1461022757806370a0823114610257578063715018a61461028757610135565b806301ffc9a71461013957806306fdde0314610169578063081812fc14610187578063095ea7b3146101b757806323b872dd146101d3575b5f5ffd5b610153600480360381019061014e9190611ebe565b610407565b6040516101609190611f03565b60405180910390f35b610171610467565b60405161017e9190611f8c565b60405180910390f35b6101a1600480360381019061019c9190611fdf565b6104f6565b6040516101ae9190612049565b60405180910390f35b6101d160048036038101906101cc919061208c565b610511565b005b6101ed60048036038101906101e891906120ca565b610527565b005b610209600480360381019061020491906120ca565b610626565b005b61022560048036038101906102209190612246565b610645565b005b610241600480360381019061023c9190611fdf565b6106dc565b60405161024e9190612049565b60405180910390f35b610271600480360381019061026c919061228d565b6106ed565b60405161027e91906122c7565b60405180910390f35b61028f6107a3565b005b6102ab60048036038101906102a691906122e0565b6107b6565b005b6102b56108cf565b6040516102c29190612049565b60405180910390f35b6102e560048036038101906102e09190612246565b6108f7565b005b6102ef61094a565b6040516102fc9190611f8c565b60405180910390f35b61031f600480360381019061031a9190611fdf565b6109da565b60405161032c9190611f8c565b60405180910390f35b61034f600480360381019061034a9190612364565b610acb565b005b61036b60048036038101906103669190612440565b610ae1565b005b61038760048036038101906103829190611fdf565b610b06565b6040516103949190611f8c565b60405180910390f35b6103a5610c11565b6040516103b29190611f8c565b60405180910390f35b6103d560048036038101906103d091906124c0565b610ca1565b6040516103e29190611f03565b60405180910390f35b6104056004803603810190610400919061228d565b610d2f565b005b5f634906490660e01b7bffffffffffffffffffffffffffffffffffffffffffffffffffffffff1916827bffffffffffffffffffffffffffffffffffffffffffffffffffffffff19161480610460575061045f82610db3565b5b9050919050565b60605f80546104759061252b565b80601f01602080910402602001604051908101604052809291908181526020018280546104a19061252b565b80156104ec5780601f106104c3576101008083540402835291602001916104ec565b820191905f5260205f20905b8154815290600101906020018083116104cf57829003601f168201915b5050505050905090565b5f61050082610e94565b5061050a82610f1a565b9050919050565b610523828261051e610f53565b610f5a565b5050565b5f73ffffffffffffffffffffffffffffffffffffffff168273ffffffffffffffffffffffffffffffffffffffff1603610597575f6040517f64a0ae9200000000000000000000000000000000000000000000000000000000815260040161058e9190612049565b60405180910390fd5b5f6105aa83836105a5610f53565b610f6c565b90508373ffffffffffffffffffffffffffffffffffffffff168173ffffffffffffffffffffffffffffffffffffffff1614610620578382826040517f64283d7b0000000000000000000000000000000000000000000000000000000081526004016106179392919061255b565b60405180910390fd5b50505050565b61064083838360405180602001604052805f815250610ae1565b505050565b61064d611177565b5f60085414610691576040517f08c379a000000000000000000000000000000000000000000000000000000000815260040161068890612600565b60405180910390fd5b80600990816106a091906127be565b507f6741b2fc379fad678116fe3d4d4b9a1a184ab53ba36b86ad0fa66340b1ab41ad60096040516106d1919061290e565b60405180910390a150565b5f6106e682610e94565b9050919050565b5f5f73ffffffffffffffffffffffffffffffffffffffff168273ffffffffffffffffffffffffffffffffffffffff160361075e575f6040517f89c62b640000000000000000000000000000000000000000000000000000000081526004016107559190612049565b60405180910390fd5b60035f8373ffffffffffffffffffffffffffffffffffffffff1673ffffffffffffffffffffffffffffffffffffffff1681526020019081526020015f20549050919050565b6107ab611177565b6107b45f6111fe565b565b6107be611177565b5f815111610801576040517f08c379a00000000000000000000000000000000000000000000000000000000081526004016107f890612978565b60405180910390fd5b61080d826008546112c1565b61084260085461081e6008546112de565b60405160200161082e9190612a1a565b6040516020818303038152906040526113a8565b80600b5f60085481526020019081526020015f20908161086291906127be565b506008548273ffffffffffffffffffffffffffffffffffffffff167f1e1b69b56bd875547ce642e5ca9d38001b825863ffbf9cf08c72e0ff64b00a8d836040516108ac9190611f8c565b60405180910390a360085f8154809291906108c690612a68565b91905055505050565b5f60075f9054906101000a900473ffffffffffffffffffffffffffffffffffffffff16905090565b6108ff611177565b80600a908161090e91906127be565b507f905d981207a7d0b6c62cc46ab0be2a076d0298e4a86d0ab79882dbd01ac37378600a60405161093f919061290e565b60405180910390a150565b6060600180546109599061252b565b80601f01602080910402602001604051908101604052809291908181526020018280546109859061252b565b80156109d05780601f106109a7576101008083540402835291602001916109d0565b820191905f5260205f20905b8154815290600101906020018083116109b357829003601f168201915b5050505050905090565b60605f82101580156109ed575060085482105b610a2c576040517f08c379a0000000000000000000000000000000000000000000000000000000008152600401610a2390612af9565b60405180910390fd5b600b5f8381526020019081526020015f208054610a489061252b565b80601f0160208091040260200160405190810160405280929190818152602001828054610a749061252b565b8015610abf5780601f10610a9657610100808354040283529160200191610abf565b820191905f5260205f20905b815481529060010190602001808311610aa257829003601f168201915b50505050509050919050565b610add610ad6610f53565b8383611402565b5050565b610aec848484610527565b610b00610af7610f53565b8585858561156b565b50505050565b6060610b1182610e94565b505f60065f8481526020019081526020015f208054610b2f9061252b565b80601f0160208091040260200160405190810160405280929190818152602001828054610b5b9061252b565b8015610ba65780601f10610b7d57610100808354040283529160200191610ba6565b820191905f5260205f20905b815481529060010190602001808311610b8957829003601f168201915b505050505090505f610bb6611717565b90505f815103610bca578192505050610c0c565b5f82511115610bfe578082604051602001610be6929190612b17565b60405160208183030381529060405292505050610c0c565b610c07846117a7565b925050505b919050565b6060600a8054610c209061252b565b80601f0160208091040260200160405190810160405280929190818152602001828054610c4c9061252b565b8015610c975780601f10610c6e57610100808354040283529160200191610c97565b820191905f5260205f20905b815481529060010190602001808311610c7a57829003601f168201915b5050505050905090565b5f60055f8473ffffffffffffffffffffffffffffffffffffffff1673ffffffffffffffffffffffffffffffffffffffff1681526020019081526020015f205f8373ffffffffffffffffffffffffffffffffffffffff1673ffffffffffffffffffffffffffffffffffffffff1681526020019081526020015f205f9054906101000a900460ff16905092915050565b610d37611177565b5f73ffffffffffffffffffffffffffffffffffffffff168173ffffffffffffffffffffffffffffffffffffffff1603610da7575f6040517f1e4fbdf7000000000000000000000000000000000000000000000000000000008152600401610d9e9190612049565b60405180910390fd5b610db0816111fe565b50565b5f7f80ac58cd000000000000000000000000000000000000000000000000000000007bffffffffffffffffffffffffffffffffffffffffffffffffffffffff1916827bffffffffffffffffffffffffffffffffffffffffffffffffffffffff19161480610e7d57507f5b5e139f000000000000000000000000000000000000000000000000000000007bffffffffffffffffffffffffffffffffffffffffffffffffffffffff1916827bffffffffffffffffffffffffffffffffffffffffffffffffffffffff1916145b80610e8d5750610e8c8261180d565b5b9050919050565b5f5f610e9f83611876565b90505f73ffffffffffffffffffffffffffffffffffffffff168173ffffffffffffffffffffffffffffffffffffffff1603610f1157826040517f7e273289000000000000000000000000000000000000000000000000000000008152600401610f0891906122c7565b60405180910390fd5b80915050919050565b5f60045f8381526020019081526020015f205f9054906101000a900473ffffffffffffffffffffffffffffffffffffffff169050919050565b5f33905090565b610f6783838360016118af565b505050565b5f5f610f7784611876565b90505f73ffffffffffffffffffffffffffffffffffffffff168373ffffffffffffffffffffffffffffffffffffffff1614610fb857610fb7818486611a6e565b5b5f73ffffffffffffffffffffffffffffffffffffffff168173ffffffffffffffffffffffffffffffffffffffff161461104357610ff75f855f5f6118af565b600160035f8373ffffffffffffffffffffffffffffffffffffffff1673ffffffffffffffffffffffffffffffffffffffff1681526020019081526020015f205f82825403925050819055505b5f73ffffffffffffffffffffffffffffffffffffffff168573ffffffffffffffffffffffffffffffffffffffff16146110c257600160035f8773ffffffffffffffffffffffffffffffffffffffff1673ffffffffffffffffffffffffffffffffffffffff1681526020019081526020015f205f82825401925050819055505b8460025f8681526020019081526020015f205f6101000a81548173ffffffffffffffffffffffffffffffffffffffff021916908373ffffffffffffffffffffffffffffffffffffffff160217905550838573ffffffffffffffffffffffffffffffffffffffff168273ffffffffffffffffffffffffffffffffffffffff167fddf252ad1be2c89b69c2b068fc378daa952ba7f163c4a11628f55a4df523b3ef60405160405180910390a4809150509392505050565b61117f610f53565b73ffffffffffffffffffffffffffffffffffffffff1661119d6108cf565b73ffffffffffffffffffffffffffffffffffffffff16146111fc576111c0610f53565b6040517f118cdaa70000000000000000000000000000000000000000000000000000000081526004016111f39190612049565b60405180910390fd5b565b5f60075f9054906101000a900473ffffffffffffffffffffffffffffffffffffffff1690508160075f6101000a81548173ffffffffffffffffffffffffffffffffffffffff021916908373ffffffffffffffffffffffffffffffffffffffff1602179055508173ffffffffffffffffffffffffffffffffffffffff168173ffffffffffffffffffffffffffffffffffffffff167f8be0079c531659141344cd1fd0a4f28419497f9722a3daafe3b4186f6b6457e060405160405180910390a35050565b6112da828260405180602001604052805f815250611b31565b5050565b60605f60016112ec84611b54565b0190505f8167ffffffffffffffff81111561130a57611309612122565b5b6040519080825280601f01601f19166020018201604052801561133c5781602001600182028036833780820191505090505b5090505f82602001820190505b60011561139d578080600190039150507f3031323334353637383961626364656600000000000000000000000000000000600a86061a8153600a858161139257611391612b3a565b5b0494505f8503611349575b819350505050919050565b8060065f8481526020019081526020015f2090816113c691906127be565b507ff8e1a15aba9398e019f0b49df1a4fde98ee17ae345cb5f6b5e2c27f5033e8ce7826040516113f691906122c7565b60405180910390a15050565b5f73ffffffffffffffffffffffffffffffffffffffff168273ffffffffffffffffffffffffffffffffffffffff160361147257816040517f5b08ba180000000000000000000000000000000000000000000000000000000081526004016114699190612049565b60405180910390fd5b8060055f8573ffffffffffffffffffffffffffffffffffffffff1673ffffffffffffffffffffffffffffffffffffffff1681526020019081526020015f205f8473ffffffffffffffffffffffffffffffffffffffff1673ffffffffffffffffffffffffffffffffffffffff1681526020019081526020015f205f6101000a81548160ff0219169083151502179055508173ffffffffffffffffffffffffffffffffffffffff168373ffffffffffffffffffffffffffffffffffffffff167f17307eab39ab6107e8899845ad3d59bd9653f200f220920489ca2b5937696c318360405161155e9190611f03565b60405180910390a3505050565b5f8373ffffffffffffffffffffffffffffffffffffffff163b1115611710578273ffffffffffffffffffffffffffffffffffffffff1663150b7a02868685856040518563ffffffff1660e01b81526004016115c99493929190612bb9565b6020604051808303815f875af192505050801561160457506040513d601f19601f820116820180604052508101906116019190612c17565b60015b611685573d805f8114611632576040519150601f19603f3d011682016040523d82523d5f602084013e611637565b606091505b505f81510361167d57836040517f64a0ae920000000000000000000000000000000000000000000000000000000081526004016116749190612049565b60405180910390fd5b805181602001fd5b63150b7a0260e01b7bffffffffffffffffffffffffffffffffffffffffffffffffffffffff1916817bffffffffffffffffffffffffffffffffffffffffffffffffffffffff19161461170e57836040517f64a0ae920000000000000000000000000000000000000000000000000000000081526004016117059190612049565b60405180910390fd5b505b5050505050565b6060600980546117269061252b565b80601f01602080910402602001604051908101604052809291908181526020018280546117529061252b565b801561179d5780601f106117745761010080835404028352916020019161179d565b820191905f5260205f20905b81548152906001019060200180831161178057829003601f168201915b5050505050905090565b60606117b282610e94565b505f6117bc611717565b90505f8151116117da5760405180602001604052805f815250611805565b806117e4846112de565b6040516020016117f5929190612b17565b6040516020818303038152906040525b915050919050565b5f7f01ffc9a7000000000000000000000000000000000000000000000000000000007bffffffffffffffffffffffffffffffffffffffffffffffffffffffff1916827bffffffffffffffffffffffffffffffffffffffffffffffffffffffff1916149050919050565b5f60025f8381526020019081526020015f205f9054906101000a900473ffffffffffffffffffffffffffffffffffffffff169050919050565b80806118e757505f73ffffffffffffffffffffffffffffffffffffffff168273ffffffffffffffffffffffffffffffffffffffff1614155b15611a19575f6118f684610e94565b90505f73ffffffffffffffffffffffffffffffffffffffff168373ffffffffffffffffffffffffffffffffffffffff161415801561196057508273ffffffffffffffffffffffffffffffffffffffff168173ffffffffffffffffffffffffffffffffffffffff1614155b801561197357506119718184610ca1565b155b156119b557826040517fa9fbf51f0000000000000000000000000000000000000000000000000000000081526004016119ac9190612049565b60405180910390fd5b8115611a1757838573ffffffffffffffffffffffffffffffffffffffff168273ffffffffffffffffffffffffffffffffffffffff167f8c5be1e5ebec7d5bd14f71427d1e84f3dd0314c0f7b2291e5b200ac8c7c3b92560405160405180910390a45b505b8360045f8581526020019081526020015f205f6101000a81548173ffffffffffffffffffffffffffffffffffffffff021916908373ffffffffffffffffffffffffffffffffffffffff16021790555050505050565b611a79838383611ca5565b611b2c575f73ffffffffffffffffffffffffffffffffffffffff168373ffffffffffffffffffffffffffffffffffffffff1603611aed57806040517f7e273289000000000000000000000000000000000000000000000000000000008152600401611ae491906122c7565b60405180910390fd5b81816040517f177e802f000000000000000000000000000000000000000000000000000000008152600401611b23929190612c42565b60405180910390fd5b505050565b611b3b8383611d65565b611b4f611b46610f53565b5f85858561156b565b505050565b5f5f5f90507a184f03e93ff9f4daa797ed6e38ed64bf6a1f0100000000000000008310611bb0577a184f03e93ff9f4daa797ed6e38ed64bf6a1f0100000000000000008381611ba657611ba5612b3a565b5b0492506040810190505b6d04ee2d6d415b85acef81000000008310611bed576d04ee2d6d415b85acef81000000008381611be357611be2612b3a565b5b0492506020810190505b662386f26fc100008310611c1c57662386f26fc100008381611c1257611c11612b3a565b5b0492506010810190505b6305f5e1008310611c45576305f5e1008381611c3b57611c3a612b3a565b5b0492506008810190505b6127108310611c6a576127108381611c6057611c5f612b3a565b5b0492506004810190505b60648310611c8d5760648381611c8357611c82612b3a565b5b0492506002810190505b600a8310611c9c576001810190505b80915050919050565b5f5f73ffffffffffffffffffffffffffffffffffffffff168373ffffffffffffffffffffffffffffffffffffffff1614158015611d5c57508273ffffffffffffffffffffffffffffffffffffffff168473ffffffffffffffffffffffffffffffffffffffff161480611d1d5750611d1c8484610ca1565b5b80611d5b57508273ffffffffffffffffffffffffffffffffffffffff16611d4383610f1a565b73ffffffffffffffffffffffffffffffffffffffff16145b5b90509392505050565b5f73ffffffffffffffffffffffffffffffffffffffff168273ffffffffffffffffffffffffffffffffffffffff1603611dd5575f6040517f64a0ae92000000000000000000000000000000000000000000000000000000008152600401611dcc9190612049565b60405180910390fd5b5f611de183835f610f6c565b90505f73ffffffffffffffffffffffffffffffffffffffff168173ffffffffffffffffffffffffffffffffffffffff1614611e53575f6040517f73c6ac6e000000000000000000000000000000000000000000000000000000008152600401611e4a9190612049565b60405180910390fd5b505050565b5f604051905090565b5f5ffd5b5f5ffd5b5f7fffffffff0000000000000000000000000000000000000000000000000000000082169050919050565b611e9d81611e69565b8114611ea7575f5ffd5b50565b5f81359050611eb881611e94565b92915050565b5f60208284031215611ed357611ed2611e61565b5b5f611ee084828501611eaa565b91505092915050565b5f8115159050919050565b611efd81611ee9565b82525050565b5f602082019050611f165f830184611ef4565b92915050565b5f81519050919050565b5f82825260208201905092915050565b8281835e5f83830152505050565b5f601f19601f8301169050919050565b5f611f5e82611f1c565b611f688185611f26565b9350611f78818560208601611f36565b611f8181611f44565b840191505092915050565b5f6020820190508181035f830152611fa48184611f54565b905092915050565b5f819050919050565b611fbe81611fac565b8114611fc8575f5ffd5b50565b5f81359050611fd981611fb5565b92915050565b5f60208284031215611ff457611ff3611e61565b5b5f61200184828501611fcb565b91505092915050565b5f73ffffffffffffffffffffffffffffffffffffffff82169050919050565b5f6120338261200a565b9050919050565b61204381612029565b82525050565b5f60208201905061205c5f83018461203a565b92915050565b61206b81612029565b8114612075575f5ffd5b50565b5f8135905061208681612062565b92915050565b5f5f604083850312156120a2576120a1611e61565b5b5f6120af85828601612078565b92505060206120c085828601611fcb565b9150509250929050565b5f5f5f606084860312156120e1576120e0611e61565b5b5f6120ee86828701612078565b93505060206120ff86828701612078565b925050604061211086828701611fcb565b9150509250925092565b5f5ffd5b5f5ffd5b7f4e487b71000000000000000000000000000000000000000000000000000000005f52604160045260245ffd5b61215882611f44565b810181811067ffffffffffffffff8211171561217757612176612122565b5b80604052505050565b5f612189611e58565b9050612195828261214f565b919050565b5f67ffffffffffffffff8211156121b4576121b3612122565b5b6121bd82611f44565b9050602081019050919050565b828183375f83830152505050565b5f6121ea6121e58461219a565b612180565b9050828152602081018484840111156122065761220561211e565b5b6122118482856121ca565b509392505050565b5f82601f83011261222d5761222c61211a565b5b813561223d8482602086016121d8565b91505092915050565b5f6020828403121561225b5761225a611e61565b5b5f82013567ffffffffffffffff81111561227857612277611e65565b5b61228484828501612219565b91505092915050565b5f602082840312156122a2576122a1611e61565b5b5f6122af84828501612078565b91505092915050565b6122c181611fac565b82525050565b5f6020820190506122da5f8301846122b8565b92915050565b5f5f604083850312156122f6576122f5611e61565b5b5f61230385828601612078565b925050602083013567ffffffffffffffff81111561232457612323611e65565b5b61233085828601612219565b9150509250929050565b61234381611ee9565b811461234d575f5ffd5b50565b5f8135905061235e8161233a565b92915050565b5f5f6040838503121561237a57612379611e61565b5b5f61238785828601612078565b925050602061239885828601612350565b9150509250929050565b5f67ffffffffffffffff8211156123bc576123bb612122565b5b6123c582611f44565b9050602081019050919050565b5f6123e46123df846123a2565b612180565b905082815260208101848484011115612400576123ff61211e565b5b61240b8482856121ca565b509392505050565b5f82601f8301126124275761242661211a565b5b81356124378482602086016123d2565b91505092915050565b5f5f5f5f6080858703121561245857612457611e61565b5b5f61246587828801612078565b945050602061247687828801612078565b935050604061248787828801611fcb565b925050606085013567ffffffffffffffff8111156124a8576124a7611e65565b5b6124b487828801612413565b91505092959194509250565b5f5f604083850312156124d6576124d5611e61565b5b5f6124e385828601612078565b92505060206124f485828601612078565b9150509250929050565b7f4e487b71000000000000000000000000000000000000000000000000000000005f52602260045260245ffd5b5f600282049050600182168061254257607f821691505b602082108103612555576125546124fe565b5b50919050565b5f60608201905061256e5f83018661203a565b61257b60208301856122b8565b612588604083018461203a565b949350505050565b7f546f6f206c61746520746f206368616e676520626173655552492c20746f6b655f8201527f6e732068617665206265656e206d696e7465642e000000000000000000000000602082015250565b5f6125ea603483611f26565b91506125f582612590565b604082019050919050565b5f6020820190508181035f830152612617816125de565b9050919050565b5f819050815f5260205f209050919050565b5f6020601f8301049050919050565b5f82821b905092915050565b5f6008830261267a7fffffffffffffffffffffffffffffffffffffffffffffffffffffffffffffffff8261263f565b612684868361263f565b95508019841693508086168417925050509392505050565b5f819050919050565b5f6126bf6126ba6126b584611fac565b61269c565b611fac565b9050919050565b5f819050919050565b6126d8836126a5565b6126ec6126e4826126c6565b84845461264b565b825550505050565b5f5f905090565b6127036126f4565b61270e8184846126cf565b505050565b5b81811015612731576127265f826126fb565b600181019050612714565b5050565b601f821115612776576127478161261e565b61275084612630565b8101602085101561275f578190505b61277361276b85612630565b830182612713565b50505b505050565b5f82821c905092915050565b5f6127965f198460080261277b565b1980831691505092915050565b5f6127ae8383612787565b9150826002028217905092915050565b6127c782611f1c565b67ffffffffffffffff8111156127e0576127df612122565b5b6127ea825461252b565b6127f5828285612735565b5f60209050601f831160018114612826575f8415612814578287015190505b61281e85826127a3565b865550612885565b601f1984166128348661261e565b5f5b8281101561285b57848901518255600182019150602085019450602081019050612836565b868310156128785784890151612874601f891682612787565b8355505b6001600288020188555050505b505050505050565b5f81546128998161252b565b6128a38186611f26565b9450600182165f81146128bd57600181146128d357612905565b60ff198316865281151560200286019350612905565b6128dc8561261e565b5f5b838110156128fd578154818901526001820191506020810190506128de565b808801955050505b50505092915050565b5f6020820190508181035f830152612926818461288d565b905092915050565b7f5061727479206e756d626572206d757374206e6f7420626520656d70747900005f82015250565b5f612962601e83611f26565b915061296d8261292e565b602082019050919050565b5f6020820190508181035f83015261298f81612956565b9050919050565b5f81905092915050565b5f6129aa82611f1c565b6129b48185612996565b93506129c4818560208601611f36565b80840191505092915050565b7f2e6a736f6e0000000000000000000000000000000000000000000000000000005f82015250565b5f612a04600583612996565b9150612a0f826129d0565b600582019050919050565b5f612a2582846129a0565b9150612a30826129f8565b915081905092915050565b7f4e487b71000000000000000000000000000000000000000000000000000000005f52601160045260245ffd5b5f612a7282611fac565b91507fffffffffffffffffffffffffffffffffffffffffffffffffffffffffffffffff8203612aa457612aa3612a3b565b5b600182019050919050565b7f546f6b656e20646f6573206e6f742065786973740000000000000000000000005f82015250565b5f612ae3601483611f26565b9150612aee82612aaf565b602082019050919050565b5f6020820190508181035f830152612b1081612ad7565b9050919050565b5f612b2282856129a0565b9150612b2e82846129a0565b91508190509392505050565b7f4e487b71000000000000000000000000000000000000000000000000000000005f52601260045260245ffd5b5f81519050919050565b5f82825260208201905092915050565b5f612b8b82612b67565b612b958185612b71565b9350612ba5818560208601611f36565b612bae81611f44565b840191505092915050565b5f608082019050612bcc5f83018761203a565b612bd9602083018661203a565b612be660408301856122b8565b8181036060830152612bf88184612b81565b905095945050505050565b5f81519050612c1181611e94565b92915050565b5f60208284031215612c2c57612c2b611e61565b5b5f612c3984828501612c03565b91505092915050565b5f604082019050612c555f83018561203a565b612c6260208301846122b8565b939250505056fea26469706673582212203ffc7f97491722180519e591e8edbbdcccd4c1fe9a6f5c632aedbef3c085fc0c64736f6c634300081c0033","linkReferences":{}},"methodIdentifiers":{"approve(address,uint256)":"095ea7b3","balanceOf(address)":"70a08231","contractURI()":"e8a3d485","createNewGPPT(address,string)":"86e9e0ff","getApproved(uint256)":"081812fc","getPartyNum(uint256)":"9822cd84","isApprovedForAll(address,address)":"e985e9c5","name()":"06fdde03","owner()":"8da5cb5b","ownerOf(uint256)":"6352211e","renounceOwnership()":"715018a6","safeTransferFrom(address,address,uint256)":"42842e0e","safeTransferFrom(address,address,uint256,bytes)":"b88d4fde","setApprovalForAll(address,bool)":"a22cb465","setBaseURI(string)":"55f804b3","setContractURI(string)":"938e3d7b","supportsInterface(bytes4)":"01ffc9a7","symbol()":"95d89b41","tokenURI(uint256)":"c87b56dd","transferFrom(address,address,uint256)":"23b872dd","transferOwnership(address)":"f2fde38b"},"id":37}