{"abi":[{"type":"constructor","inputs":[{"name":"_initBaseURI","type":"string","internalType":"string"},{"name":"_initContractURI","type":"string","internalType":"string"}],"stateMutability":"nonpayable"},{"type":"function","name":"approve","inputs":[{"name":"to","type":"address","internalType":"address"},{"name":"tokenId","type":"uint256","internalType":"uint256"}],"outputs":[],"stateMutability":"nonpayable"},{"type":"function","name":"balanceOf","inputs":[{"name":"owner","type":"address","internalType":"address"}],"outputs":[{"name":"","type":"uint256","internalType":"uint256"}],"stateMutability":"view"},{"type":"function","name":"contractURI","inputs":[],"outputs":[{"name":"","type":"string","internalType":"string"}],"stateMutability":"view"},{"type":"function","name":"createNewGPPT","inputs":[{"name":"_to","type":"address","internalType":"address"},{"name":"_partyNum","type":"string","internalType":"string"}],"outputs":[],"stateMutability":"nonpayable"},{"type":"function","name":"getApproved","inputs":[{"name":"tokenId","type":"uint256","internalType":"uint256"}],"outputs":[{"name":"","type":"address","internalType":"address"}],"stateMutability":"view"},{"type":"function","name":"getPartyNum","inputs":[{"name":"_tokenId","type":"uint256","internalType":"uint256"}],"outputs":[{"name":"","type":"string","internalType":"string"}],"stateMutability":"view"},{"type":"function","name":"isApprovedForAll","inputs":[{"name":"owner","type":"address","internalType":"address"},{"name":"operator","type":"address","internalType":"address"}],"outputs":[{"name":"","type":"bool","internalType":"bool"}],"stateMutability":"view"},{"type":"function","name":"name","inputs":[],"outputs":[{"name":"","type":"string","internalType":"string"}],"stateMutability":"view"},{"type":"function","name":"owner","inputs":[],"outputs":[{"name":"","type":"address","internalType":"address"}],"stateMutability":"view"},{"type":"function","name":"ownerOf","inputs":[{"name":"tokenId","type":"uint256","internalType":"uint256"}],"outputs":[{"name":"","type":"address","internalType":"address"}],"stateMutability":"view"},{"type":"function","name":"renounceOwnership","inputs":[],"outputs":[],"stateMutability":"nonpayable"},{"type":"function","name":"safeTransferFrom","inputs":[{"name":"from","type":"address","internalType":"address"},{"name":"to","type":"address","internalType":"address"},{"name":"tokenId","type":"uint256","internalType":"uint256"}],"outputs":[],"stateMutability":"nonpayable"},{"type":"function","name":"safeTransferFrom","inputs":[{"name":"from","type":"address","internalType":"address"},{"name":"to","type":"address","internalType":"address"},{"name":"tokenId","type":"uint256","internalType":"uint256"},{"name":"data","type":"bytes","internalType":"bytes"}],"outputs":[],"stateMutability":"nonpayable"},{"type":"function","name":"setApprovalForAll","inputs":[{"name":"operator","type":"address","internalType":"address"},{"name":"approved","type":"bool","internalType":"bool"}],"outputs":[],"stateMutability":"nonpayable"},{"type":"function","name":"setBaseURI","inputs":[{"name":"_newBaseURI","type":"string","internalType":"string"}],"outputs":[],"stateMutability":"nonpayable"},{"type":"function","name":"setContractURI","inputs":[{"name":"_newContractURI","type":"string","internalType":"string"}],"outputs":[],"stateMutability":"nonpayable"},{"type":"function","name":"supportsInterface","inputs":[{"name":"interfaceId","type":"bytes4","internalType":"bytes4"}],"outputs":[{"name":"","type":"bool","internalType":"bool"}],"stateMutability":"view"},{"type":"function","name":"symbol","inputs":[],"outputs":[{"name":"","type":"string","internalType":"string"}],"stateMutability":"view"},{"type":"function","name":"tokenURI","inputs":[{"name":"tokenId","type":"uint256","internalType":"uint256"}],"outputs":[{"name":"","type":"string","internalType":"string"}],"stateMutability":"view"},{"type":"function","name":"transferFrom","inputs":[{"name":"from","type":"address","internalType":"address"},{"name":"to","type":"address","internalType":"address"},{"name":"tokenId","type":"uint256","internalType":"uint256"}],"outputs":[],"stateMutability":"nonpayable"},{"type":"function","name":"transferOwnership","inputs":[{"name":"newOwner","type":"address","internalType":"address"}],"outputs":[],"stateMutability":"nonpayable"},{"type":"event","name":"Approval","inputs":[{"name":"owner","type":"address","indexed":true,"internalType":"address"},{"name":"approved","type":"address","indexed":true,"internalType":"address"},{"name":"tokenId","type":"uint256","indexed":true,"internalType":"uint256"}],"anonymous":false},{"type":"event","name":"ApprovalForAll","inputs":[{"name":"owner","type":"address","indexed":true,"internalType":"address"},{"name":"operator","type":"address","indexed":true,"internalType":"address"},{"name":"approved","type":"bool","indexed":false,"internalType":"bool"}],"anonymous":false},{"type":"event","name":"BaseURIUpdated","inputs":[{"name":"newBaseURI","type":"string","indexed":false,"internalType":"string"}],"anonymous":false},{"type":"event","name":"BatchMetadataUpdate","inputs":[{"name":"_fromTokenId","type":"uint256","indexed":false,"internalType":"uint256"},{"name":"_toTokenId","type":"uint256","indexed":false,"internalType":"uint256"}],"anonymous":false},{"type":"event","name":"ContractURIUpdated","inputs":[{"name":"newContractURI","type":"string","indexed":false,"internalType":"string"}],"anonymous":false},{"type":"event","name":"MetadataUpdate","inputs":[{"name":"_tokenId","type":"uint256","indexed":false,"internalType":"uint256"}],"anonymous":false},{"type":"event","name":"OwnershipTransferred","inputs":[{"name":"previousOwner","type":"address","indexed":true,"internalType":"address"},{"name":"newOwner","type":"address","indexed":true,"internalType":"address"}],"anonymous":false},{"type":"event","name":"TokenCreated","inputs":[{"name":"to","type":"address","indexed":true,"internalType":"address"},{"name":"tokenId","type":"uint256","indexed":true,"internalType":"uint256"},{"name":"partyNumber","type":"string","indexed":false,"internalType":"string"}],"anonymous":false},{"type":"event","name":"Transfer","inputs":[{"name":"from","type":"address","indexed":true,"internalType":"address"},{"name":"to","type":"address","indexed":true,"internalType":"address"},{"name":"tokenId","type":"uint256","indexed":true,"internalType":"uint256"}],"anonymous":false},{"type":"error","name":"ERC721IncorrectOwner","inputs":[{"name":"sender","type":"address","internalType":"address"},{"name":"tokenId","type":"uint256","internalType":"uint256"},{"name":"owner","type":"address","internalType":"address"}]},{"type":"error","name":"ERC721InsufficientApproval","inputs":[{"name":"operator","type":"address","internalType":"address"},{"name":"tokenId","type":"uint256","internalType":"uint256"}]},{"type":"error","name":"ERC721InvalidApprover","inputs":[{"name":"approver","type":"address","internalType":"address"}]},{"type":"error","name":"ERC721InvalidOperator","inputs":[{"name":"operator","type":"address","internalType":"address"}]},{"type":"error","name":"ERC721InvalidOwner","inputs":[{"name":"owner","type":"address","internalType":"address"}]},{"type":"error","name":"ERC721InvalidReceiver","inputs":[{"name":"receiver","type":"address","internalType":"address"}]},{"type":"error","name":"ERC721InvalidSender","inputs":[{"name":"sender","type":"address","internalType":"address"}]},{"type":"error","name":"ERC721NonexistentToken","inputs":[{"name":"tokenId","type":"uint256","internalType":"uint256"}]},{"type":"error","name":"OwnableInvalidOwner","inputs":[{"name":"owner","type":"address","internalType":"address"}]},{"type":"error","name":"OwnableUnauthorizedAccount","inputs":[{"name":"account","type":"address","internalType":"address"}]}],"bytecode":{"object":"0x608060405234801561000f575f5ffd5b506040516134663803806134668339818101604052810190610031919061037d565b336040518060400160405280601981526020017f47656e6573697350617274696369706174696f6e546f6b656e000000000000008152506040518060400160405280600481526020017f4750505400000000000000000000000000000000000000000000000000000000815250815f90816100ac9190610603565b5080600190816100bc9190610603565b5050505f73ffffffffffffffffffffffffffffffffffffffff168173ffffffffffffffffffffffffffffffffffffffff160361012f575f6040517f1e4fbdf70000000000000000000000000000000000000000000000000000000081526004016101269190610711565b60405180910390fd5b61013e8161016d60201b60201c565b505f60088190555081600990816101559190610603565b5080600a90816101659190610603565b50505061072a565b5f60075f9054906101000a900473ffffffffffffffffffffffffffffffffffffffff1690508160075f6101000a81548173ffffffffffffffffffffffffffffffffffffffff021916908373ffffffffffffffffffffffffffffffffffffffff1602179055508173ffffffffffffffffffffffffffffffffffffffff168173ffffffffffffffffffffffffffffffffffffffff167f8be0079c531659141344cd1fd0a4f28419497f9722a3daafe3b4186f6b6457e060405160405180910390a35050565b5f604051905090565b5f5ffd5b5f5ffd5b5f5ffd5b5f5ffd5b5f601f19601f8301169050919050565b7f4e487b71000000000000000000000000000000000000000000000000000000005f52604160045260245ffd5b61028f82610249565b810181811067ffffffffffffffff821117156102ae576102ad610259565b5b80604052505050565b5f6102c0610230565b90506102cc8282610286565b919050565b5f67ffffffffffffffff8211156102eb576102ea610259565b5b6102f482610249565b9050602081019050919050565b8281835e5f83830152505050565b5f61032161031c846102d1565b6102b7565b90508281526020810184848401111561033d5761033c610245565b5b610348848285610301565b509392505050565b5f82601f83011261036457610363610241565b5b815161037484826020860161030f565b91505092915050565b5f5f6040838503121561039357610392610239565b5b5f83015167ffffffffffffffff8111156103b0576103af61023d565b5b6103bc85828601610350565b925050602083015167ffffffffffffffff8111156103dd576103dc61023d565b5b6103e985828601610350565b9150509250929050565b5f81519050919050565b7f4e487b71000000000000000000000000000000000000000000000000000000005f52602260045260245ffd5b5f600282049050600182168061044157607f821691505b602082108103610454576104536103fd565b5b50919050565b5f819050815f5260205f209050919050565b5f6020601f8301049050919050565b5f82821b905092915050565b5f600883026104b67fffffffffffffffffffffffffffffffffffffffffffffffffffffffffffffffff8261047b565b6104c0868361047b565b95508019841693508086168417925050509392505050565b5f819050919050565b5f819050919050565b5f6105046104ff6104fa846104d8565b6104e1565b6104d8565b9050919050565b5f819050919050565b61051d836104ea565b6105316105298261050b565b848454610487565b825550505050565b5f5f905090565b610548610539565b610553818484610514565b505050565b5b818110156105765761056b5f82610540565b600181019050610559565b5050565b601f8211156105bb5761058c8161045a565b6105958461046c565b810160208510156105a4578190505b6105b86105b08561046c565b830182610558565b50505b505050565b5f82821c905092915050565b5f6105db5f19846008026105c0565b1980831691505092915050565b5f6105f383836105cc565b9150826002028217905092915050565b61060c826103f3565b67ffffffffffffffff81111561062557610624610259565b5b61062f825461042a565b61063a82828561057a565b5f60209050601f83116001811461066b575f8415610659578287015190505b61066385826105e8565b8655506106ca565b601f1984166106798661045a565b5f5b828110156106a05784890151825560018201915060208501945060208101905061067b565b868310156106bd57848901516106b9601f8916826105cc565b8355505b6001600288020188555050505b505050505050565b5f73ffffffffffffffffffffffffffffffffffffffff82169050919050565b5f6106fb826106d2565b9050919050565b61070b816106f1565b82525050565b5f6020820190506107245f830184610702565b92915050565b612d2f806107375f395ff3fe608060405234801561000f575f5ffd5b5060043610610135575f3560e01c806386e9e0ff116100b6578063a22cb4651161007a578063a22cb46514610335578063b88d4fde14610351578063c87b56dd1461036d578063e8a3d4851461039d578063e985e9c5146103bb578063f2fde38b146103eb57610135565b806386e9e0ff146102915780638da5cb5b146102ad578063938e3d7b146102cb57806395d89b41146102e75780639822cd841461030557610135565b806342842e0e116100fd57806342842e0e146101ef57806355f804b31461020b5780636352211e1461022757806370a0823114610257578063715018a61461028757610135565b806301ffc9a71461013957806306fdde0314610169578063081812fc14610187578063095ea7b3146101b757806323b872dd146101d3575b5f5ffd5b610153600480360381019061014e9190611ec1565b610407565b6040516101609190611f06565b60405180910390f35b610171610467565b60405161017e9190611f8f565b60405180910390f35b6101a1600480360381019061019c9190611fe2565b6104f6565b6040516101ae919061204c565b60405180910390f35b6101d160048036038101906101cc919061208f565b610511565b005b6101ed60048036038101906101e891906120cd565b610527565b005b610209600480360381019061020491906120cd565b610626565b005b61022560048036038101906102209190612249565b610645565b005b610241600480360381019061023c9190611fe2565b6106dc565b60405161024e919061204c565b60405180910390f35b610271600480360381019061026c9190612290565b6106ed565b60405161027e91906122ca565b60405180910390f35b61028f6107a3565b005b6102ab60048036038101906102a691906122e3565b6107b6565b005b6102b56108d2565b6040516102c2919061204c565b60405180910390f35b6102e560048036038101906102e09190612249565b6108fa565b005b6102ef61094d565b6040516102fc9190611f8f565b60405180910390f35b61031f600480360381019061031a9190611fe2565b6109dd565b60405161032c9190611f8f565b60405180910390f35b61034f600480360381019061034a9190612367565b610ace565b005b61036b60048036038101906103669190612443565b610ae4565b005b61038760048036038101906103829190611fe2565b610b09565b6040516103949190611f8f565b60405180910390f35b6103a5610c14565b6040516103b29190611f8f565b60405180910390f35b6103d560048036038101906103d091906124c3565b610ca4565b6040516103e29190611f06565b60405180910390f35b61040560048036038101906104009190612290565b610d32565b005b5f634906490660e01b7bffffffffffffffffffffffffffffffffffffffffffffffffffffffff1916827bffffffffffffffffffffffffffffffffffffffffffffffffffffffff19161480610460575061045f82610db6565b5b9050919050565b60605f80546104759061252e565b80601f01602080910402602001604051908101604052809291908181526020018280546104a19061252e565b80156104ec5780601f106104c3576101008083540402835291602001916104ec565b820191905f5260205f20905b8154815290600101906020018083116104cf57829003601f168201915b5050505050905090565b5f61050082610e97565b5061050a82610f1d565b9050919050565b610523828261051e610f56565b610f5d565b5050565b5f73ffffffffffffffffffffffffffffffffffffffff168273ffffffffffffffffffffffffffffffffffffffff1603610597575f6040517f64a0ae9200000000000000000000000000000000000000000000000000000000815260040161058e919061204c565b60405180910390fd5b5f6105aa83836105a5610f56565b610f6f565b90508373ffffffffffffffffffffffffffffffffffffffff168173ffffffffffffffffffffffffffffffffffffffff1614610620578382826040517f64283d7b0000000000000000000000000000000000000000000000000000000081526004016106179392919061255e565b60405180910390fd5b50505050565b61064083838360405180602001604052805f815250610ae4565b505050565b61064d61117a565b5f60085414610691576040517f08c379a000000000000000000000000000000000000000000000000000000000815260040161068890612603565b60405180910390fd5b80600990816106a091906127c1565b507f6741b2fc379fad678116fe3d4d4b9a1a184ab53ba36b86ad0fa66340b1ab41ad60096040516106d19190612911565b60405180910390a150565b5f6106e682610e97565b9050919050565b5f5f73ffffffffffffffffffffffffffffffffffffffff168273ffffffffffffffffffffffffffffffffffffffff160361075e575f6040517f89c62b64000000000000000000000000000000000000000000000000000000008152600401610755919061204c565b60405180910390fd5b60035f8373ffffffffffffffffffffffffffffffffffffffff1673ffffffffffffffffffffffffffffffffffffffff1681526020019081526020015f20549050919050565b6107ab61117a565b6107b45f611201565b565b6107be61117a565b5f815111610801576040517f08c379a00000000000000000000000000000000000000000000000000000000081526004016107f89061297b565b60405180910390fd5b61080d826008546112c4565b61084560085460096108206008546112e1565b604051602001610831929190612a9d565b6040516020818303038152906040526113ab565b80600b5f60085481526020019081526020015f20908161086591906127c1565b506008548273ffffffffffffffffffffffffffffffffffffffff167f1e1b69b56bd875547ce642e5ca9d38001b825863ffbf9cf08c72e0ff64b00a8d836040516108af9190611f8f565b60405180910390a360085f8154809291906108c990612af8565b91905055505050565b5f60075f9054906101000a900473ffffffffffffffffffffffffffffffffffffffff16905090565b61090261117a565b80600a908161091191906127c1565b507f905d981207a7d0b6c62cc46ab0be2a076d0298e4a86d0ab79882dbd01ac37378600a6040516109429190612911565b60405180910390a150565b60606001805461095c9061252e565b80601f01602080910402602001604051908101604052809291908181526020018280546109889061252e565b80156109d35780601f106109aa576101008083540402835291602001916109d3565b820191905f5260205f20905b8154815290600101906020018083116109b657829003601f168201915b5050505050905090565b60605f82101580156109f0575060085482105b610a2f576040517f08c379a0000000000000000000000000000000000000000000000000000000008152600401610a2690612b89565b60405180910390fd5b600b5f8381526020019081526020015f208054610a4b9061252e565b80601f0160208091040260200160405190810160405280929190818152602001828054610a779061252e565b8015610ac25780601f10610a9957610100808354040283529160200191610ac2565b820191905f5260205f20905b815481529060010190602001808311610aa557829003601f168201915b50505050509050919050565b610ae0610ad9610f56565b8383611405565b5050565b610aef848484610527565b610b03610afa610f56565b8585858561156e565b50505050565b6060610b1482610e97565b505f60065f8481526020019081526020015f208054610b329061252e565b80601f0160208091040260200160405190810160405280929190818152602001828054610b5e9061252e565b8015610ba95780601f10610b8057610100808354040283529160200191610ba9565b820191905f5260205f20905b815481529060010190602001808311610b8c57829003601f168201915b505050505090505f610bb961171a565b90505f815103610bcd578192505050610c0f565b5f82511115610c01578082604051602001610be9929190612ba7565b60405160208183030381529060405292505050610c0f565b610c0a846117aa565b925050505b919050565b6060600a8054610c239061252e565b80601f0160208091040260200160405190810160405280929190818152602001828054610c4f9061252e565b8015610c9a5780601f10610c7157610100808354040283529160200191610c9a565b820191905f5260205f20905b815481529060010190602001808311610c7d57829003601f168201915b5050505050905090565b5f60055f8473ffffffffffffffffffffffffffffffffffffffff1673ffffffffffffffffffffffffffffffffffffffff1681526020019081526020015f205f8373ffffffffffffffffffffffffffffffffffffffff1673ffffffffffffffffffffffffffffffffffffffff1681526020019081526020015f205f9054906101000a900460ff16905092915050565b610d3a61117a565b5f73ffffffffffffffffffffffffffffffffffffffff168173ffffffffffffffffffffffffffffffffffffffff1603610daa575f6040517f1e4fbdf7000000000000000000000000000000000000000000000000000000008152600401610da1919061204c565b60405180910390fd5b610db381611201565b50565b5f7f80ac58cd000000000000000000000000000000000000000000000000000000007bffffffffffffffffffffffffffffffffffffffffffffffffffffffff1916827bffffffffffffffffffffffffffffffffffffffffffffffffffffffff19161480610e8057507f5b5e139f000000000000000000000000000000000000000000000000000000007bffffffffffffffffffffffffffffffffffffffffffffffffffffffff1916827bffffffffffffffffffffffffffffffffffffffffffffffffffffffff1916145b80610e905750610e8f82611810565b5b9050919050565b5f5f610ea283611879565b90505f73ffffffffffffffffffffffffffffffffffffffff168173ffffffffffffffffffffffffffffffffffffffff1603610f1457826040517f7e273289000000000000000000000000000000000000000000000000000000008152600401610f0b91906122ca565b60405180910390fd5b80915050919050565b5f60045f8381526020019081526020015f205f9054906101000a900473ffffffffffffffffffffffffffffffffffffffff169050919050565b5f33905090565b610f6a83838360016118b2565b505050565b5f5f610f7a84611879565b90505f73ffffffffffffffffffffffffffffffffffffffff168373ffffffffffffffffffffffffffffffffffffffff1614610fbb57610fba818486611a71565b5b5f73ffffffffffffffffffffffffffffffffffffffff168173ffffffffffffffffffffffffffffffffffffffff161461104657610ffa5f855f5f6118b2565b600160035f8373ffffffffffffffffffffffffffffffffffffffff1673ffffffffffffffffffffffffffffffffffffffff1681526020019081526020015f205f82825403925050819055505b5f73ffffffffffffffffffffffffffffffffffffffff168573ffffffffffffffffffffffffffffffffffffffff16146110c557600160035f8773ffffffffffffffffffffffffffffffffffffffff1673ffffffffffffffffffffffffffffffffffffffff1681526020019081526020015f205f82825401925050819055505b8460025f8681526020019081526020015f205f6101000a81548173ffffffffffffffffffffffffffffffffffffffff021916908373ffffffffffffffffffffffffffffffffffffffff160217905550838573ffffffffffffffffffffffffffffffffffffffff168273ffffffffffffffffffffffffffffffffffffffff167fddf252ad1be2c89b69c2b068fc378daa952ba7f163c4a11628f55a4df523b3ef60405160405180910390a4809150509392505050565b611182610f56565b73ffffffffffffffffffffffffffffffffffffffff166111a06108d2565b73ffffffffffffffffffffffffffffffffffffffff16146111ff576111c3610f56565b6040517f118cdaa70000000000000000000000000000000000000000000000000000000081526004016111f6919061204c565b60405180910390fd5b565b5f60075f9054906101000a900473ffffffffffffffffffffffffffffffffffffffff1690508160075f6101000a81548173ffffffffffffffffffffffffffffffffffffffff021916908373ffffffffffffffffffffffffffffffffffffffff1602179055508173ffffffffffffffffffffffffffffffffffffffff168173ffffffffffffffffffffffffffffffffffffffff167f8be0079c531659141344cd1fd0a4f28419497f9722a3daafe3b4186f6b6457e060405160405180910390a35050565b6112dd828260405180602001604052805f815250611b34565b5050565b60605f60016112ef84611b57565b0190505f8167ffffffffffffffff81111561130d5761130c612125565b5b6040519080825280601f01601f19166020018201604052801561133f5781602001600182028036833780820191505090505b5090505f82602001820190505b6001156113a0578080600190039150507f3031323334353637383961626364656600000000000000000000000000000000600a86061a8153600a858161139557611394612bca565b5b0494505f850361134c575b819350505050919050565b8060065f8481526020019081526020015f2090816113c991906127c1565b507ff8e1a15aba9398e019f0b49df1a4fde98ee17ae345cb5f6b5e2c27f5033e8ce7826040516113f991906122ca565b60405180910390a15050565b5f73ffffffffffffffffffffffffffffffffffffffff168273ffffffffffffffffffffffffffffffffffffffff160361147557816040517f5b08ba1800000000000000000000000000000000000000000000000000000000815260040161146c919061204c565b60405180910390fd5b8060055f8573ffffffffffffffffffffffffffffffffffffffff1673ffffffffffffffffffffffffffffffffffffffff1681526020019081526020015f205f8473ffffffffffffffffffffffffffffffffffffffff1673ffffffffffffffffffffffffffffffffffffffff1681526020019081526020015f205f6101000a81548160ff0219169083151502179055508173ffffffffffffffffffffffffffffffffffffffff168373ffffffffffffffffffffffffffffffffffffffff167f17307eab39ab6107e8899845ad3d59bd9653f200f220920489ca2b5937696c31836040516115619190611f06565b60405180910390a3505050565b5f8373ffffffffffffffffffffffffffffffffffffffff163b1115611713578273ffffffffffffffffffffffffffffffffffffffff1663150b7a02868685856040518563ffffffff1660e01b81526004016115cc9493929190612c49565b6020604051808303815f875af192505050801561160757506040513d601f19601f820116820180604052508101906116049190612ca7565b60015b611688573d805f8114611635576040519150601f19603f3d011682016040523d82523d5f602084013e61163a565b606091505b505f81510361168057836040517f64a0ae92000000000000000000000000000000000000000000000000000000008152600401611677919061204c565b60405180910390fd5b805181602001fd5b63150b7a0260e01b7bffffffffffffffffffffffffffffffffffffffffffffffffffffffff1916817bffffffffffffffffffffffffffffffffffffffffffffffffffffffff19161461171157836040517f64a0ae92000000000000000000000000000000000000000000000000000000008152600401611708919061204c565b60405180910390fd5b505b5050505050565b6060600980546117299061252e565b80601f01602080910402602001604051908101604052809291908181526020018280546117559061252e565b80156117a05780601f10611777576101008083540402835291602001916117a0565b820191905f5260205f20905b81548152906001019060200180831161178357829003601f168201915b5050505050905090565b60606117b582610e97565b505f6117bf61171a565b90505f8151116117dd5760405180602001604052805f815250611808565b806117e7846112e1565b6040516020016117f8929190612ba7565b6040516020818303038152906040525b915050919050565b5f7f01ffc9a7000000000000000000000000000000000000000000000000000000007bffffffffffffffffffffffffffffffffffffffffffffffffffffffff1916827bffffffffffffffffffffffffffffffffffffffffffffffffffffffff1916149050919050565b5f60025f8381526020019081526020015f205f9054906101000a900473ffffffffffffffffffffffffffffffffffffffff169050919050565b80806118ea57505f73ffffffffffffffffffffffffffffffffffffffff168273ffffffffffffffffffffffffffffffffffffffff1614155b15611a1c575f6118f984610e97565b90505f73ffffffffffffffffffffffffffffffffffffffff168373ffffffffffffffffffffffffffffffffffffffff161415801561196357508273ffffffffffffffffffffffffffffffffffffffff168173ffffffffffffffffffffffffffffffffffffffff1614155b801561197657506119748184610ca4565b155b156119b857826040517fa9fbf51f0000000000000000000000000000000000000000000000000000000081526004016119af919061204c565b60405180910390fd5b8115611a1a57838573ffffffffffffffffffffffffffffffffffffffff168273ffffffffffffffffffffffffffffffffffffffff167f8c5be1e5ebec7d5bd14f71427d1e84f3dd0314c0f7b2291e5b200ac8c7c3b92560405160405180910390a45b505b8360045f8581526020019081526020015f205f6101000a81548173ffffffffffffffffffffffffffffffffffffffff021916908373ffffffffffffffffffffffffffffffffffffffff16021790555050505050565b611a7c838383611ca8565b611b2f575f73ffffffffffffffffffffffffffffffffffffffff168373ffffffffffffffffffffffffffffffffffffffff1603611af057806040517f7e273289000000000000000000000000000000000000000000000000000000008152600401611ae791906122ca565b60405180910390fd5b81816040517f177e802f000000000000000000000000000000000000000000000000000000008152600401611b26929190612cd2565b60405180910390fd5b505050565b611b3e8383611d68565b611b52611b49610f56565b5f85858561156e565b505050565b5f5f5f90507a184f03e93ff9f4daa797ed6e38ed64bf6a1f0100000000000000008310611bb3577a184f03e93ff9f4daa797ed6e38ed64bf6a1f0100000000000000008381611ba957611ba8612bca565b5b0492506040810190505b6d04ee2d6d415b85acef81000000008310611bf0576d04ee2d6d415b85acef81000000008381611be657611be5612bca565b5b0492506020810190505b662386f26fc100008310611c1f57662386f26fc100008381611c1557611c14612bca565b5b0492506010810190505b6305f5e1008310611c48576305f5e1008381611c3e57611c3d612bca565b5b0492506008810190505b6127108310611c6d576127108381611c6357611c62612bca565b5b0492506004810190505b60648310611c905760648381611c8657611c85612bca565b5b0492506002810190505b600a8310611c9f576001810190505b80915050919050565b5f5f73ffffffffffffffffffffffffffffffffffffffff168373ffffffffffffffffffffffffffffffffffffffff1614158015611d5f57508273ffffffffffffffffffffffffffffffffffffffff168473ffffffffffffffffffffffffffffffffffffffff161480611d205750611d1f8484610ca4565b5b80611d5e57508273ffffffffffffffffffffffffffffffffffffffff16611d4683610f1d565b73ffffffffffffffffffffffffffffffffffffffff16145b5b90509392505050565b5f73ffffffffffffffffffffffffffffffffffffffff168273ffffffffffffffffffffffffffffffffffffffff1603611dd8575f6040517f64a0ae92000000000000000000000000000000000000000000000000000000008152600401611dcf919061204c565b60405180910390fd5b5f611de483835f610f6f565b90505f73ffffffffffffffffffffffffffffffffffffffff168173ffffffffffffffffffffffffffffffffffffffff1614611e56575f6040517f73c6ac6e000000000000000000000000000000000000000000000000000000008152600401611e4d919061204c565b60405180910390fd5b505050565b5f604051905090565b5f5ffd5b5f5ffd5b5f7fffffffff0000000000000000000000000000000000000000000000000000000082169050919050565b611ea081611e6c565b8114611eaa575f5ffd5b50565b5f81359050611ebb81611e97565b92915050565b5f60208284031215611ed657611ed5611e64565b5b5f611ee384828501611ead565b91505092915050565b5f8115159050919050565b611f0081611eec565b82525050565b5f602082019050611f195f830184611ef7565b92915050565b5f81519050919050565b5f82825260208201905092915050565b8281835e5f83830152505050565b5f601f19601f8301169050919050565b5f611f6182611f1f565b611f6b8185611f29565b9350611f7b818560208601611f39565b611f8481611f47565b840191505092915050565b5f6020820190508181035f830152611fa78184611f57565b905092915050565b5f819050919050565b611fc181611faf565b8114611fcb575f5ffd5b50565b5f81359050611fdc81611fb8565b92915050565b5f60208284031215611ff757611ff6611e64565b5b5f61200484828501611fce565b91505092915050565b5f73ffffffffffffffffffffffffffffffffffffffff82169050919050565b5f6120368261200d565b9050919050565b6120468161202c565b82525050565b5f60208201905061205f5f83018461203d565b92915050565b61206e8161202c565b8114612078575f5ffd5b50565b5f8135905061208981612065565b92915050565b5f5f604083850312156120a5576120a4611e64565b5b5f6120b28582860161207b565b92505060206120c385828601611fce565b9150509250929050565b5f5f5f606084860312156120e4576120e3611e64565b5b5f6120f18682870161207b565b93505060206121028682870161207b565b925050604061211386828701611fce565b9150509250925092565b5f5ffd5b5f5ffd5b7f4e487b71000000000000000000000000000000000000000000000000000000005f52604160045260245ffd5b61215b82611f47565b810181811067ffffffffffffffff8211171561217a57612179612125565b5b80604052505050565b5f61218c611e5b565b90506121988282612152565b919050565b5f67ffffffffffffffff8211156121b7576121b6612125565b5b6121c082611f47565b9050602081019050919050565b828183375f83830152505050565b5f6121ed6121e88461219d565b612183565b90508281526020810184848401111561220957612208612121565b5b6122148482856121cd565b509392505050565b5f82601f8301126122305761222f61211d565b5b81356122408482602086016121db565b91505092915050565b5f6020828403121561225e5761225d611e64565b5b5f82013567ffffffffffffffff81111561227b5761227a611e68565b5b6122878482850161221c565b91505092915050565b5f602082840312156122a5576122a4611e64565b5b5f6122b28482850161207b565b91505092915050565b6122c481611faf565b82525050565b5f6020820190506122dd5f8301846122bb565b92915050565b5f5f604083850312156122f9576122f8611e64565b5b5f6123068582860161207b565b925050602083013567ffffffffffffffff81111561232757612326611e68565b5b6123338582860161221c565b9150509250929050565b61234681611eec565b8114612350575f5ffd5b50565b5f813590506123618161233d565b92915050565b5f5f6040838503121561237d5761237c611e64565b5b5f61238a8582860161207b565b925050602061239b85828601612353565b9150509250929050565b5f67ffffffffffffffff8211156123bf576123be612125565b5b6123c882611f47565b9050602081019050919050565b5f6123e76123e2846123a5565b612183565b90508281526020810184848401111561240357612402612121565b5b61240e8482856121cd565b509392505050565b5f82601f83011261242a5761242961211d565b5b813561243a8482602086016123d5565b91505092915050565b5f5f5f5f6080858703121561245b5761245a611e64565b5b5f6124688782880161207b565b94505060206124798782880161207b565b935050604061248a87828801611fce565b925050606085013567ffffffffffffffff8111156124ab576124aa611e68565b5b6124b787828801612416565b91505092959194509250565b5f5f604083850312156124d9576124d8611e64565b5b5f6124e68582860161207b565b92505060206124f78582860161207b565b9150509250929050565b7f4e487b71000000000000000000000000000000000000000000000000000000005f52602260045260245ffd5b5f600282049050600182168061254557607f821691505b60208210810361255857612557612501565b5b50919050565b5f6060820190506125715f83018661203d565b61257e60208301856122bb565b61258b604083018461203d565b949350505050565b7f546f6f206c61746520746f206368616e676520626173655552492c20746f6b655f8201527f6e732068617665206265656e206d696e7465642e000000000000000000000000602082015250565b5f6125ed603483611f29565b91506125f882612593565b604082019050919050565b5f6020820190508181035f83015261261a816125e1565b9050919050565b5f819050815f5260205f209050919050565b5f6020601f8301049050919050565b5f82821b905092915050565b5f6008830261267d7fffffffffffffffffffffffffffffffffffffffffffffffffffffffffffffffff82612642565b6126878683612642565b95508019841693508086168417925050509392505050565b5f819050919050565b5f6126c26126bd6126b884611faf565b61269f565b611faf565b9050919050565b5f819050919050565b6126db836126a8565b6126ef6126e7826126c9565b84845461264e565b825550505050565b5f5f905090565b6127066126f7565b6127118184846126d2565b505050565b5b81811015612734576127295f826126fe565b600181019050612717565b5050565b601f8211156127795761274a81612621565b61275384612633565b81016020851015612762578190505b61277661276e85612633565b830182612716565b50505b505050565b5f82821c905092915050565b5f6127995f198460080261277e565b1980831691505092915050565b5f6127b1838361278a565b9150826002028217905092915050565b6127ca82611f1f565b67ffffffffffffffff8111156127e3576127e2612125565b5b6127ed825461252e565b6127f8828285612738565b5f60209050601f831160018114612829575f8415612817578287015190505b61282185826127a6565b865550612888565b601f19841661283786612621565b5f5b8281101561285e57848901518255600182019150602085019450602081019050612839565b8683101561287b5784890151612877601f89168261278a565b8355505b6001600288020188555050505b505050505050565b5f815461289c8161252e565b6128a68186611f29565b9450600182165f81146128c057600181146128d657612908565b60ff198316865281151560200286019350612908565b6128df85612621565b5f5b83811015612900578154818901526001820191506020810190506128e1565b808801955050505b50505092915050565b5f6020820190508181035f8301526129298184612890565b905092915050565b7f5061727479206e756d626572206d757374206e6f7420626520656d70747900005f82015250565b5f612965601e83611f29565b915061297082612931565b602082019050919050565b5f6020820190508181035f83015261299281612959565b9050919050565b5f81905092915050565b5f81546129af8161252e565b6129b98186612999565b9450600182165f81146129d357600181146129e857612a1a565b60ff1983168652811515820286019350612a1a565b6129f185612621565b5f5b83811015612a12578154818901526001820191506020810190506129f3565b838801955050505b50505092915050565b5f612a2d82611f1f565b612a378185612999565b9350612a47818560208601611f39565b80840191505092915050565b7f2e6a736f6e0000000000000000000000000000000000000000000000000000005f82015250565b5f612a87600583612999565b9150612a9282612a53565b600582019050919050565b5f612aa882856129a3565b9150612ab48284612a23565b9150612abf82612a7b565b91508190509392505050565b7f4e487b71000000000000000000000000000000000000000000000000000000005f52601160045260245ffd5b5f612b0282611faf565b91507fffffffffffffffffffffffffffffffffffffffffffffffffffffffffffffffff8203612b3457612b33612acb565b5b600182019050919050565b7f546f6b656e20646f6573206e6f742065786973740000000000000000000000005f82015250565b5f612b73601483611f29565b9150612b7e82612b3f565b602082019050919050565b5f6020820190508181035f830152612ba081612b67565b9050919050565b5f612bb28285612a23565b9150612bbe8284612a23565b91508190509392505050565b7f4e487b71000000000000000000000000000000000000000000000000000000005f52601260045260245ffd5b5f81519050919050565b5f82825260208201905092915050565b5f612c1b82612bf7565b612c258185612c01565b9350612c35818560208601611f39565b612c3e81611f47565b840191505092915050565b5f608082019050612c5c5f83018761203d565b612c69602083018661203d565b612c7660408301856122bb565b8181036060830152612c888184612c11565b905095945050505050565b5f81519050612ca181611e97565b92915050565b5f60208284031215612cbc57612cbb611e64565b5b5f612cc984828501612c93565b91505092915050565b5f604082019050612ce55f83018561203d565b612cf260208301846122bb565b939250505056fea2646970667358221220520fee5c40fed94cff0908a1920616403e4393cd1c28a6fdd09669350181289d64736f6c634300081c0033","linkReferences":{}},"methodIdentifiers":{"approve(address,uint256)":"095ea7b3","balanceOf(address)":"70a08231","contractURI()":"e8a3d485","createNewGPPT(address,string)":"86e9e0ff","getApproved(uint256)":"081812fc","getPartyNum(uint256)":"9822cd84","isApprovedForAll(address,address)":"e985e9c5","name()":"06fdde03","owner()":"8da5cb5b","ownerOf(uint256)":"6352211e","renounceOwnership()":"715018a6","safeTransferFrom(address,address,uint256)":"42842e0e","safeTransferFrom(address,address,uint256,bytes)":"b88d4fde","setApprovalForAll(address,bool)":"a22cb465","setBaseURI(string)":"55f804b3","setContractURI(string)":"938e3d7b","supportsInterface(bytes4)":"01ffc9a7","symbol()":"95d89b41","tokenURI(uint256)":"c87b56dd","transferFrom(address,address,uint256)":"23b872dd","transferOwnership(address)":"f2fde38b"},"id":37}