{"abi":[{"type":"constructor","inputs":[{"name":"_initContractURI","type":"string","internalType":"string"}],"stateMutability":"nonpayable"},{"type":"function","name":"approve","inputs":[{"name":"to","type":"address","internalType":"address"},{"name":"tokenId","type":"uint256","internalType":"uint256"}],"outputs":[],"stateMutability":"nonpayable"},{"type":"function","name":"balanceOf","inputs":[{"name":"owner","type":"address","internalType":"address"}],"outputs":[{"name":"","type":"uint256","internalType":"uint256"}],"stateMutability":"view"},{"type":"function","name":"changeOikosTokenURI","inputs":[{"name":"_oikosId","type":"uint256","internalType":"uint256"},{"name":"_tokenURI","type":"string","internalType":"string"}],"outputs":[],"stateMutability":"nonpayable"},{"type":"function","name":"contractURI","inputs":[],"outputs":[{"name":"","type":"string","internalType":"string"}],"stateMutability":"view"},{"type":"function","name":"createNewOikosToken","inputs":[{"name":"_to","type":"address","internalType":"address"},{"name":"_tokenURI","type":"string","internalType":"string"},{"name":"_parentPolisId","type":"uint16","internalType":"uint16"},{"name":"_status","type":"uint8","internalType":"uint8"}],"outputs":[],"stateMutability":"nonpayable"},{"type":"function","name":"getApproved","inputs":[{"name":"tokenId","type":"uint256","internalType":"uint256"}],"outputs":[{"name":"","type":"address","internalType":"address"}],"stateMutability":"view"},{"type":"function","name":"getOikosStatus","inputs":[{"name":"_oikosId","type":"uint256","internalType":"uint256"}],"outputs":[{"name":"","type":"uint8","internalType":"uint8"}],"stateMutability":"view"},{"type":"function","name":"getParentPolis","inputs":[{"name":"_oikosId","type":"uint256","internalType":"uint256"}],"outputs":[{"name":"","type":"uint16","internalType":"uint16"}],"stateMutability":"view"},{"type":"function","name":"isApprovedForAll","inputs":[{"name":"owner","type":"address","internalType":"address"},{"name":"operator","type":"address","internalType":"address"}],"outputs":[{"name":"","type":"bool","internalType":"bool"}],"stateMutability":"view"},{"type":"function","name":"name","inputs":[],"outputs":[{"name":"","type":"string","internalType":"string"}],"stateMutability":"view"},{"type":"function","name":"owner","inputs":[],"outputs":[{"name":"","type":"address","internalType":"address"}],"stateMutability":"view"},{"type":"function","name":"ownerOf","inputs":[{"name":"tokenId","type":"uint256","internalType":"uint256"}],"outputs":[{"name":"","type":"address","internalType":"address"}],"stateMutability":"view"},{"type":"function","name":"remintOikosToken","inputs":[{"name":"_oikosId","type":"uint256","internalType":"uint256"},{"name":"_newOwnerAddress","type":"address","internalType":"address"}],"outputs":[],"stateMutability":"nonpayable"},{"type":"function","name":"renounceOwnership","inputs":[],"outputs":[],"stateMutability":"nonpayable"},{"type":"function","name":"safeTransferFrom","inputs":[{"name":"from","type":"address","internalType":"address"},{"name":"to","type":"address","internalType":"address"},{"name":"tokenId","type":"uint256","internalType":"uint256"}],"outputs":[],"stateMutability":"nonpayable"},{"type":"function","name":"safeTransferFrom","inputs":[{"name":"from","type":"address","internalType":"address"},{"name":"to","type":"address","internalType":"address"},{"name":"tokenId","type":"uint256","internalType":"uint256"},{"name":"data","type":"bytes","internalType":"bytes"}],"outputs":[],"stateMutability":"nonpayable"},{"type":"function","name":"setApprovalForAll","inputs":[{"name":"operator","type":"address","internalType":"address"},{"name":"approved","type":"bool","internalType":"bool"}],"outputs":[],"stateMutability":"nonpayable"},{"type":"function","name":"setContractURI","inputs":[{"name":"_newContractURI","type":"string","internalType":"string"}],"outputs":[],"stateMutability":"nonpayable"},{"type":"function","name":"setOikosStatus","inputs":[{"name":"_oikosId","type":"uint256","internalType":"uint256"},{"name":"_newStatus","type":"uint8","internalType":"uint8"}],"outputs":[],"stateMutability":"nonpayable"},{"type":"function","name":"setRemintingPermission","inputs":[{"name":"_oikosId","type":"uint256","internalType":"uint256"},{"name":"_perm","type":"bool","internalType":"bool"}],"outputs":[],"stateMutability":"nonpayable"},{"type":"function","name":"setStatusNum","inputs":[{"name":"_newStatusNum","type":"uint8","internalType":"uint8"}],"outputs":[],"stateMutability":"nonpayable"},{"type":"function","name":"supportsInterface","inputs":[{"name":"interfaceId","type":"bytes4","internalType":"bytes4"}],"outputs":[{"name":"","type":"bool","internalType":"bool"}],"stateMutability":"view"},{"type":"function","name":"symbol","inputs":[],"outputs":[{"name":"","type":"string","internalType":"string"}],"stateMutability":"view"},{"type":"function","name":"tokenURI","inputs":[{"name":"tokenId","type":"uint256","internalType":"uint256"}],"outputs":[{"name":"","type":"string","internalType":"string"}],"stateMutability":"view"},{"type":"function","name":"transferFrom","inputs":[{"name":"from","type":"address","internalType":"address"},{"name":"to","type":"address","internalType":"address"},{"name":"tokenId","type":"uint256","internalType":"uint256"}],"outputs":[],"stateMutability":"nonpayable"},{"type":"function","name":"transferOwnership","inputs":[{"name":"newOwner","type":"address","internalType":"address"}],"outputs":[],"stateMutability":"nonpayable"},{"type":"event","name":"Approval","inputs":[{"name":"owner","type":"address","indexed":true,"internalType":"address"},{"name":"approved","type":"address","indexed":true,"internalType":"address"},{"name":"tokenId","type":"uint256","indexed":true,"internalType":"uint256"}],"anonymous":false},{"type":"event","name":"ApprovalForAll","inputs":[{"name":"owner","type":"address","indexed":true,"internalType":"address"},{"name":"operator","type":"address","indexed":true,"internalType":"address"},{"name":"approved","type":"bool","indexed":false,"internalType":"bool"}],"anonymous":false},{"type":"event","name":"BatchMetadataUpdate","inputs":[{"name":"_fromTokenId","type":"uint256","indexed":false,"internalType":"uint256"},{"name":"_toTokenId","type":"uint256","indexed":false,"internalType":"uint256"}],"anonymous":false},{"type":"event","name":"ContractURIUpdated","inputs":[{"name":"newContractURI","type":"string","indexed":false,"internalType":"string"}],"anonymous":false},{"type":"event","name":"MetadataUpdate","inputs":[{"name":"_tokenId","type":"uint256","indexed":false,"internalType":"uint256"}],"anonymous":false},{"type":"event","name":"OikosStatusChanging","inputs":[{"name":"oikosId","type":"uint256","indexed":false,"internalType":"uint256"},{"name":"oldStatus","type":"uint8","indexed":false,"internalType":"uint8"},{"name":"newStatus","type":"uint8","indexed":false,"internalType":"uint8"}],"anonymous":false},{"type":"event","name":"OikosTokenReminting","inputs":[{"name":"oikosId","type":"uint256","indexed":false,"internalType":"uint256"},{"name":"oldOwnerAddress","type":"address","indexed":false,"internalType":"address"},{"name":"newOwnerAddress","type":"address","indexed":false,"internalType":"address"}],"anonymous":false},{"type":"event","name":"OwnershipTransferred","inputs":[{"name":"previousOwner","type":"address","indexed":true,"internalType":"address"},{"name":"newOwner","type":"address","indexed":true,"internalType":"address"}],"anonymous":false},{"type":"event","name":"Transfer","inputs":[{"name":"from","type":"address","indexed":true,"internalType":"address"},{"name":"to","type":"address","indexed":true,"internalType":"address"},{"name":"tokenId","type":"uint256","indexed":true,"internalType":"uint256"}],"anonymous":false},{"type":"error","name":"ERC721IncorrectOwner","inputs":[{"name":"sender","type":"address","internalType":"address"},{"name":"tokenId","type":"uint256","internalType":"uint256"},{"name":"owner","type":"address","internalType":"address"}]},{"type":"error","name":"ERC721InsufficientApproval","inputs":[{"name":"operator","type":"address","internalType":"address"},{"name":"tokenId","type":"uint256","internalType":"uint256"}]},{"type":"error","name":"ERC721InvalidApprover","inputs":[{"name":"approver","type":"address","internalType":"address"}]},{"type":"error","name":"ERC721InvalidOperator","inputs":[{"name":"operator","type":"address","internalType":"address"}]},{"type":"error","name":"ERC721InvalidOwner","inputs":[{"name":"owner","type":"address","internalType":"address"}]},{"type":"error","name":"ERC721InvalidReceiver","inputs":[{"name":"receiver","type":"address","internalType":"address"}]},{"type":"error","name":"ERC721InvalidSender","inputs":[{"name":"sender","type":"address","internalType":"address"}]},{"type":"error","name":"ERC721NonexistentToken","inputs":[{"name":"tokenId","type":"uint256","internalType":"uint256"}]},{"type":"error","name":"OwnableInvalidOwner","inputs":[{"name":"owner","type":"address","internalType":"address"}]},{"type":"error","name":"OwnableUnauthorizedAccount","inputs":[{"name":"account","type":"address","internalType":"address"}]}],"bytecode":{"object":"0x60806040526004600b5f6101000a81548160ff021916908360ff16021790555034801561002a575f5ffd5b50604051613745380380613745833981810160405281019061004c9190610380565b336040518060400160405280600a81526020017f4f696b6f73546f6b656e000000000000000000000000000000000000000000008152506040518060400160405280600481526020017f4f4b535400000000000000000000000000000000000000000000000000000000815250815f90816100c791906105d7565b5080600190816100d791906105d7565b5050505f73ffffffffffffffffffffffffffffffffffffffff168173ffffffffffffffffffffffffffffffffffffffff160361014a575f6040517f1e4fbdf700000000000000000000000000000000000000000000000000000000815260040161014191906106e5565b60405180910390fd5b6101598161017060201b60201c565b50806009908161016991906105d7565b50506106fe565b5f60075f9054906101000a900473ffffffffffffffffffffffffffffffffffffffff1690508160075f6101000a81548173ffffffffffffffffffffffffffffffffffffffff021916908373ffffffffffffffffffffffffffffffffffffffff1602179055508173ffffffffffffffffffffffffffffffffffffffff168173ffffffffffffffffffffffffffffffffffffffff167f8be0079c531659141344cd1fd0a4f28419497f9722a3daafe3b4186f6b6457e060405160405180910390a35050565b5f604051905090565b5f5ffd5b5f5ffd5b5f5ffd5b5f5ffd5b5f601f19601f8301169050919050565b7f4e487b71000000000000000000000000000000000000000000000000000000005f52604160045260245ffd5b6102928261024c565b810181811067ffffffffffffffff821117156102b1576102b061025c565b5b80604052505050565b5f6102c3610233565b90506102cf8282610289565b919050565b5f67ffffffffffffffff8211156102ee576102ed61025c565b5b6102f78261024c565b9050602081019050919050565b8281835e5f83830152505050565b5f61032461031f846102d4565b6102ba565b9050828152602081018484840111156103405761033f610248565b5b61034b848285610304565b509392505050565b5f82601f83011261036757610366610244565b5b8151610377848260208601610312565b91505092915050565b5f602082840312156103955761039461023c565b5b5f82015167ffffffffffffffff8111156103b2576103b1610240565b5b6103be84828501610353565b91505092915050565b5f81519050919050565b7f4e487b71000000000000000000000000000000000000000000000000000000005f52602260045260245ffd5b5f600282049050600182168061041557607f821691505b602082108103610428576104276103d1565b5b50919050565b5f819050815f5260205f209050919050565b5f6020601f8301049050919050565b5f82821b905092915050565b5f6008830261048a7fffffffffffffffffffffffffffffffffffffffffffffffffffffffffffffffff8261044f565b610494868361044f565b95508019841693508086168417925050509392505050565b5f819050919050565b5f819050919050565b5f6104d86104d36104ce846104ac565b6104b5565b6104ac565b9050919050565b5f819050919050565b6104f1836104be565b6105056104fd826104df565b84845461045b565b825550505050565b5f5f905090565b61051c61050d565b6105278184846104e8565b505050565b5b8181101561054a5761053f5f82610514565b60018101905061052d565b5050565b601f82111561058f576105608161042e565b61056984610440565b81016020851015610578578190505b61058c61058485610440565b83018261052c565b50505b505050565b5f82821c905092915050565b5f6105af5f1984600802610594565b1980831691505092915050565b5f6105c783836105a0565b9150826002028217905092915050565b6105e0826103c7565b67ffffffffffffffff8111156105f9576105f861025c565b5b61060382546103fe565b61060e82828561054e565b5f60209050601f83116001811461063f575f841561062d578287015190505b61063785826105bc565b86555061069e565b601f19841661064d8661042e565b5f5b828110156106745784890151825560018201915060208501945060208101905061064f565b86831015610691578489015161068d601f8916826105a0565b8355505b6001600288020188555050505b505050505050565b5f73ffffffffffffffffffffffffffffffffffffffff82169050919050565b5f6106cf826106a6565b9050919050565b6106df816106c5565b82525050565b5f6020820190506106f85f8301846106d6565b92915050565b61303a8061070b5f395ff3fe608060405234801561000f575f5ffd5b506004361061018c575f3560e01c806395d89b41116100dc578063e492ee2f11610095578063ecde03c51161006f578063ecde03c51461048e578063f2fde38b146104aa578063fa6df37f146104c6578063fe316c7d146104e25761018c565b8063e492ee2f14610424578063e8a3d48514610440578063e985e9c51461045e5761018c565b806395d89b411461033e5780639d2dbfaa1461035c578063a22cb4651461038c578063b88d4fde146103a8578063c87b56dd146103c4578063e1eece59146103f45761018c565b806357a03e7a11610149578063715018a611610123578063715018a6146102de578063819c9060146102e85780638da5cb5b14610304578063938e3d7b146103225761018c565b806357a03e7a146102625780636352211e1461027e57806370a08231146102ae5761018c565b806301ffc9a71461019057806306fdde03146101c0578063081812fc146101de578063095ea7b31461020e57806323b872dd1461022a57806342842e0e14610246575b5f5ffd5b6101aa60048036038101906101a591906120c6565b6104fe565b6040516101b7919061210b565b60405180910390f35b6101c861055e565b6040516101d59190612194565b60405180910390f35b6101f860048036038101906101f391906121e7565b6105ed565b6040516102059190612251565b60405180910390f35b61022860048036038101906102239190612294565b610608565b005b610244600480360381019061023f91906122d2565b61061e565b005b610260600480360381019061025b91906122d2565b61071d565b005b61027c60048036038101906102779190612358565b61073c565b005b610298600480360381019061029391906121e7565b610761565b6040516102a59190612251565b60405180910390f35b6102c860048036038101906102c39190612383565b610772565b6040516102d591906123bd565b60405180910390f35b6102e6610828565b005b61030260048036038101906102fd91906123d6565b61083b565b005b61030c6109cd565b6040516103199190612251565b60405180910390f35b61033c60048036038101906103379190612540565b6109f5565b005b610346610a48565b6040516103539190612194565b60405180910390f35b610376600480360381019061037191906121e7565b610ad8565b60405161038391906125a3565b60405180910390f35b6103a660048036038101906103a191906125e6565b610aff565b005b6103c260048036038101906103bd91906126c2565b610b15565b005b6103de60048036038101906103d991906121e7565b610b3a565b6040516103eb9190612194565b60405180910390f35b61040e600480360381019061040991906121e7565b610c45565b60405161041b9190612751565b60405180910390f35b61043e6004803603810190610439919061276a565b610c6b565b005b610448610c81565b6040516104559190612194565b60405180910390f35b610478600480360381019061047391906127c4565b610d11565b604051610485919061210b565b60405180910390f35b6104a860048036038101906104a39190612802565b610d9f565b005b6104c460048036038101906104bf9190612383565b610e77565b005b6104e060048036038101906104db919061286a565b610efb565b005b6104fc60048036038101906104f791906128ea565b610fca565b005b5f634906490660e01b7bffffffffffffffffffffffffffffffffffffffffffffffffffffffff1916827bffffffffffffffffffffffffffffffffffffffffffffffffffffffff19161480610557575061055682611035565b5b9050919050565b60605f805461056c90612955565b80601f016020809104026020016040519081016040528092919081815260200182805461059890612955565b80156105e35780601f106105ba576101008083540402835291602001916105e3565b820191905f5260205f20905b8154815290600101906020018083116105c657829003601f168201915b5050505050905090565b5f6105f782611116565b506106018261119c565b9050919050565b61061a82826106156111d5565b6111dc565b5050565b5f73ffffffffffffffffffffffffffffffffffffffff168273ffffffffffffffffffffffffffffffffffffffff160361068e575f6040517f64a0ae920000000000000000000000000000000000000000000000000000000081526004016106859190612251565b60405180910390fd5b5f6106a1838361069c6111d5565b6111ee565b90508373ffffffffffffffffffffffffffffffffffffffff168173ffffffffffffffffffffffffffffffffffffffff1614610717578382826040517f64283d7b00000000000000000000000000000000000000000000000000000000815260040161070e93929190612985565b60405180910390fd5b50505050565b61073783838360405180602001604052805f815250610b15565b505050565b6107446113f9565b80600b5f6101000a81548160ff021916908360ff16021790555050565b5f61076b82611116565b9050919050565b5f5f73ffffffffffffffffffffffffffffffffffffffff168273ffffffffffffffffffffffffffffffffffffffff16036107e3575f6040517f89c62b640000000000000000000000000000000000000000000000000000000081526004016107da9190612251565b60405180910390fd5b60035f8373ffffffffffffffffffffffffffffffffffffffff1673ffffffffffffffffffffffffffffffffffffffff1681526020019081526020015f20549050919050565b6108306113f9565b6108395f611480565b565b6108436113f9565b5f600c5f8481526020019081526020015f205f9054906101000a900460ff1660ff16036108a5576040517f08c379a000000000000000000000000000000000000000000000000000000000815260040161089c90612a04565b60405180910390fd5b60011515600d5f8481526020019081526020015f205f9054906101000a900460ff16151514610909576040517f08c379a000000000000000000000000000000000000000000000000000000000815260040161090090612a6c565b60405180910390fd5b5f600c5f8481526020019081526020015f205f9054906101000a900460ff1690507f3b8233e6589b3b5435123516925829f1802f7ff9b3572e670c2fca1412f597248361095585610761565b8460405161096593929190612a8a565b60405180910390a15f600c5f8581526020019081526020015f205f6101000a81548160ff021916908360ff1602179055506109c8826109a385610b3a565b600a5f8781526020019081526020015f205f9054906101000a900461ffff1684610efb565b505050565b5f60075f9054906101000a900473ffffffffffffffffffffffffffffffffffffffff16905090565b6109fd6113f9565b8060099081610a0c9190612c5f565b507f905d981207a7d0b6c62cc46ab0be2a076d0298e4a86d0ab79882dbd01ac373786009604051610a3d9190612daf565b60405180910390a150565b606060018054610a5790612955565b80601f0160208091040260200160405190810160405280929190818152602001828054610a8390612955565b8015610ace5780601f10610aa557610100808354040283529160200191610ace565b820191905f5260205f20905b815481529060010190602001808311610ab157829003601f168201915b5050505050905090565b5f600a5f8381526020019081526020015f205f9054906101000a900461ffff169050919050565b610b11610b0a6111d5565b8383611543565b5050565b610b2084848461061e565b610b34610b2b6111d5565b858585856116ac565b50505050565b6060610b4582611116565b505f60065f8481526020019081526020015f208054610b6390612955565b80601f0160208091040260200160405190810160405280929190818152602001828054610b8f90612955565b8015610bda5780601f10610bb157610100808354040283529160200191610bda565b820191905f5260205f20905b815481529060010190602001808311610bbd57829003601f168201915b505050505090505f610bea611858565b90505f815103610bfe578192505050610c40565b5f82511115610c32578082604051602001610c1a929190612e09565b60405160208183030381529060405292505050610c40565b610c3b8461186e565b925050505b919050565b5f600c5f8381526020019081526020015f205f9054906101000a900460ff169050919050565b610c736113f9565b610c7d82826118d4565b5050565b606060098054610c9090612955565b80601f0160208091040260200160405190810160405280929190818152602001828054610cbc90612955565b8015610d075780601f10610cde57610100808354040283529160200191610d07565b820191905f5260205f20905b815481529060010190602001808311610cea57829003601f168201915b5050505050905090565b5f60055f8473ffffffffffffffffffffffffffffffffffffffff1673ffffffffffffffffffffffffffffffffffffffff1681526020019081526020015f205f8373ffffffffffffffffffffffffffffffffffffffff1673ffffffffffffffffffffffffffffffffffffffff1681526020019081526020015f205f9054906101000a900460ff16905092915050565b610da76113f9565b5f600c5f8481526020019081526020015f205f9054906101000a900460ff1660ff16118015610dea5750600b5f9054906101000a900460ff1660ff168160ff1611155b610df2575f5ffd5b7f7fefc1fb326590a221af1665ec5a63a000e82f6614af1575c970735fb55c33d582600c5f8581526020019081526020015f205f9054906101000a900460ff1683604051610e4293929190612e2c565b60405180910390a180600c5f8481526020019081526020015f205f6101000a81548160ff021916908360ff1602179055505050565b610e7f6113f9565b5f73ffffffffffffffffffffffffffffffffffffffff168173ffffffffffffffffffffffffffffffffffffffff1603610eef575f6040517f1e4fbdf7000000000000000000000000000000000000000000000000000000008152600401610ee69190612251565b60405180910390fd5b610ef881611480565b50565b610f036113f9565b5f8160ff16118015610f295750600b5f9054906101000a900460ff1660ff168160ff1611155b8015610f3557505f8351115b610f3d575f5ffd5b610f498460085461192e565b80600c5f60085481526020019081526020015f205f6101000a81548160ff021916908360ff16021790555081600a5f60085481526020019081526020015f205f6101000a81548161ffff021916908361ffff160217905550610fad600854846118d4565b60085f815480929190610fbf90612e8e565b919050555050505050565b610fd382610761565b73ffffffffffffffffffffffffffffffffffffffff163373ffffffffffffffffffffffffffffffffffffffff1614611009575f5ffd5b80600d5f8481526020019081526020015f205f6101000a81548160ff0219169083151502179055505050565b5f7f80ac58cd000000000000000000000000000000000000000000000000000000007bffffffffffffffffffffffffffffffffffffffffffffffffffffffff1916827bffffffffffffffffffffffffffffffffffffffffffffffffffffffff191614806110ff57507f5b5e139f000000000000000000000000000000000000000000000000000000007bffffffffffffffffffffffffffffffffffffffffffffffffffffffff1916827bffffffffffffffffffffffffffffffffffffffffffffffffffffffff1916145b8061110f575061110e8261194b565b5b9050919050565b5f5f611121836119b4565b90505f73ffffffffffffffffffffffffffffffffffffffff168173ffffffffffffffffffffffffffffffffffffffff160361119357826040517f7e27328900000000000000000000000000000000000000000000000000000000815260040161118a91906123bd565b60405180910390fd5b80915050919050565b5f60045f8381526020019081526020015f205f9054906101000a900473ffffffffffffffffffffffffffffffffffffffff169050919050565b5f33905090565b6111e983838360016119ed565b505050565b5f5f6111f9846119b4565b90505f73ffffffffffffffffffffffffffffffffffffffff168373ffffffffffffffffffffffffffffffffffffffff161461123a57611239818486611bac565b5b5f73ffffffffffffffffffffffffffffffffffffffff168173ffffffffffffffffffffffffffffffffffffffff16146112c5576112795f855f5f6119ed565b600160035f8373ffffffffffffffffffffffffffffffffffffffff1673ffffffffffffffffffffffffffffffffffffffff1681526020019081526020015f205f82825403925050819055505b5f73ffffffffffffffffffffffffffffffffffffffff168573ffffffffffffffffffffffffffffffffffffffff161461134457600160035f8773ffffffffffffffffffffffffffffffffffffffff1673ffffffffffffffffffffffffffffffffffffffff1681526020019081526020015f205f82825401925050819055505b8460025f8681526020019081526020015f205f6101000a81548173ffffffffffffffffffffffffffffffffffffffff021916908373ffffffffffffffffffffffffffffffffffffffff160217905550838573ffffffffffffffffffffffffffffffffffffffff168273ffffffffffffffffffffffffffffffffffffffff167fddf252ad1be2c89b69c2b068fc378daa952ba7f163c4a11628f55a4df523b3ef60405160405180910390a4809150509392505050565b6114016111d5565b73ffffffffffffffffffffffffffffffffffffffff1661141f6109cd565b73ffffffffffffffffffffffffffffffffffffffff161461147e576114426111d5565b6040517f118cdaa70000000000000000000000000000000000000000000000000000000081526004016114759190612251565b60405180910390fd5b565b5f60075f9054906101000a900473ffffffffffffffffffffffffffffffffffffffff1690508160075f6101000a81548173ffffffffffffffffffffffffffffffffffffffff021916908373ffffffffffffffffffffffffffffffffffffffff1602179055508173ffffffffffffffffffffffffffffffffffffffff168173ffffffffffffffffffffffffffffffffffffffff167f8be0079c531659141344cd1fd0a4f28419497f9722a3daafe3b4186f6b6457e060405160405180910390a35050565b5f73ffffffffffffffffffffffffffffffffffffffff168273ffffffffffffffffffffffffffffffffffffffff16036115b357816040517f5b08ba180000000000000000000000000000000000000000000000000000000081526004016115aa9190612251565b60405180910390fd5b8060055f8573ffffffffffffffffffffffffffffffffffffffff1673ffffffffffffffffffffffffffffffffffffffff1681526020019081526020015f205f8473ffffffffffffffffffffffffffffffffffffffff1673ffffffffffffffffffffffffffffffffffffffff1681526020019081526020015f205f6101000a81548160ff0219169083151502179055508173ffffffffffffffffffffffffffffffffffffffff168373ffffffffffffffffffffffffffffffffffffffff167f17307eab39ab6107e8899845ad3d59bd9653f200f220920489ca2b5937696c318360405161169f919061210b565b60405180910390a3505050565b5f8373ffffffffffffffffffffffffffffffffffffffff163b1115611851578273ffffffffffffffffffffffffffffffffffffffff1663150b7a02868685856040518563ffffffff1660e01b815260040161170a9493929190612f27565b6020604051808303815f875af192505050801561174557506040513d601f19601f820116820180604052508101906117429190612f85565b60015b6117c6573d805f8114611773576040519150601f19603f3d011682016040523d82523d5f602084013e611778565b606091505b505f8151036117be57836040517f64a0ae920000000000000000000000000000000000000000000000000000000081526004016117b59190612251565b60405180910390fd5b805181602001fd5b63150b7a0260e01b7bffffffffffffffffffffffffffffffffffffffffffffffffffffffff1916817bffffffffffffffffffffffffffffffffffffffffffffffffffffffff19161461184f57836040517f64a0ae920000000000000000000000000000000000000000000000000000000081526004016118469190612251565b60405180910390fd5b505b5050505050565b606060405180602001604052805f815250905090565b606061187982611116565b505f611883611858565b90505f8151116118a15760405180602001604052805f8152506118cc565b806118ab84611c6f565b6040516020016118bc929190612e09565b6040516020818303038152906040525b915050919050565b8060065f8481526020019081526020015f2090816118f29190612c5f565b507ff8e1a15aba9398e019f0b49df1a4fde98ee17ae345cb5f6b5e2c27f5033e8ce78260405161192291906123bd565b60405180910390a15050565b611947828260405180602001604052805f815250611d39565b5050565b5f7f01ffc9a7000000000000000000000000000000000000000000000000000000007bffffffffffffffffffffffffffffffffffffffffffffffffffffffff1916827bffffffffffffffffffffffffffffffffffffffffffffffffffffffff1916149050919050565b5f60025f8381526020019081526020015f205f9054906101000a900473ffffffffffffffffffffffffffffffffffffffff169050919050565b8080611a2557505f73ffffffffffffffffffffffffffffffffffffffff168273ffffffffffffffffffffffffffffffffffffffff1614155b15611b57575f611a3484611116565b90505f73ffffffffffffffffffffffffffffffffffffffff168373ffffffffffffffffffffffffffffffffffffffff1614158015611a9e57508273ffffffffffffffffffffffffffffffffffffffff168173ffffffffffffffffffffffffffffffffffffffff1614155b8015611ab15750611aaf8184610d11565b155b15611af357826040517fa9fbf51f000000000000000000000000000000000000000000000000000000008152600401611aea9190612251565b60405180910390fd5b8115611b5557838573ffffffffffffffffffffffffffffffffffffffff168273ffffffffffffffffffffffffffffffffffffffff167f8c5be1e5ebec7d5bd14f71427d1e84f3dd0314c0f7b2291e5b200ac8c7c3b92560405160405180910390a45b505b8360045f8581526020019081526020015f205f6101000a81548173ffffffffffffffffffffffffffffffffffffffff021916908373ffffffffffffffffffffffffffffffffffffffff16021790555050505050565b611bb7838383611d5c565b611c6a575f73ffffffffffffffffffffffffffffffffffffffff168373ffffffffffffffffffffffffffffffffffffffff1603611c2b57806040517f7e273289000000000000000000000000000000000000000000000000000000008152600401611c2291906123bd565b60405180910390fd5b81816040517f177e802f000000000000000000000000000000000000000000000000000000008152600401611c61929190612fb0565b60405180910390fd5b505050565b60605f6001611c7d84611e1c565b0190505f8167ffffffffffffffff811115611c9b57611c9a61241c565b5b6040519080825280601f01601f191660200182016040528015611ccd5781602001600182028036833780820191505090505b5090505f82602001820190505b600115611d2e578080600190039150507f3031323334353637383961626364656600000000000000000000000000000000600a86061a8153600a8581611d2357611d22612fd7565b5b0494505f8503611cda575b819350505050919050565b611d438383611f6d565b611d57611d4e6111d5565b5f8585856116ac565b505050565b5f5f73ffffffffffffffffffffffffffffffffffffffff168373ffffffffffffffffffffffffffffffffffffffff1614158015611e1357508273ffffffffffffffffffffffffffffffffffffffff168473ffffffffffffffffffffffffffffffffffffffff161480611dd45750611dd38484610d11565b5b80611e1257508273ffffffffffffffffffffffffffffffffffffffff16611dfa8361119c565b73ffffffffffffffffffffffffffffffffffffffff16145b5b90509392505050565b5f5f5f90507a184f03e93ff9f4daa797ed6e38ed64bf6a1f0100000000000000008310611e78577a184f03e93ff9f4daa797ed6e38ed64bf6a1f0100000000000000008381611e6e57611e6d612fd7565b5b0492506040810190505b6d04ee2d6d415b85acef81000000008310611eb5576d04ee2d6d415b85acef81000000008381611eab57611eaa612fd7565b5b0492506020810190505b662386f26fc100008310611ee457662386f26fc100008381611eda57611ed9612fd7565b5b0492506010810190505b6305f5e1008310611f0d576305f5e1008381611f0357611f02612fd7565b5b0492506008810190505b6127108310611f32576127108381611f2857611f27612fd7565b5b0492506004810190505b60648310611f555760648381611f4b57611f4a612fd7565b5b0492506002810190505b600a8310611f64576001810190505b80915050919050565b5f73ffffffffffffffffffffffffffffffffffffffff168273ffffffffffffffffffffffffffffffffffffffff1603611fdd575f6040517f64a0ae92000000000000000000000000000000000000000000000000000000008152600401611fd49190612251565b60405180910390fd5b5f611fe983835f6111ee565b90505f73ffffffffffffffffffffffffffffffffffffffff168173ffffffffffffffffffffffffffffffffffffffff161461205b575f6040517f73c6ac6e0000000000000000000000000000000000000000000000000000000081526004016120529190612251565b60405180910390fd5b505050565b5f604051905090565b5f5ffd5b5f5ffd5b5f7fffffffff0000000000000000000000000000000000000000000000000000000082169050919050565b6120a581612071565b81146120af575f5ffd5b50565b5f813590506120c08161209c565b92915050565b5f602082840312156120db576120da612069565b5b5f6120e8848285016120b2565b91505092915050565b5f8115159050919050565b612105816120f1565b82525050565b5f60208201905061211e5f8301846120fc565b92915050565b5f81519050919050565b5f82825260208201905092915050565b8281835e5f83830152505050565b5f601f19601f8301169050919050565b5f61216682612124565b612170818561212e565b935061218081856020860161213e565b6121898161214c565b840191505092915050565b5f6020820190508181035f8301526121ac818461215c565b905092915050565b5f819050919050565b6121c6816121b4565b81146121d0575f5ffd5b50565b5f813590506121e1816121bd565b92915050565b5f602082840312156121fc576121fb612069565b5b5f612209848285016121d3565b91505092915050565b5f73ffffffffffffffffffffffffffffffffffffffff82169050919050565b5f61223b82612212565b9050919050565b61224b81612231565b82525050565b5f6020820190506122645f830184612242565b92915050565b61227381612231565b811461227d575f5ffd5b50565b5f8135905061228e8161226a565b92915050565b5f5f604083850312156122aa576122a9612069565b5b5f6122b785828601612280565b92505060206122c8858286016121d3565b9150509250929050565b5f5f5f606084860312156122e9576122e8612069565b5b5f6122f686828701612280565b935050602061230786828701612280565b9250506040612318868287016121d3565b9150509250925092565b5f60ff82169050919050565b61233781612322565b8114612341575f5ffd5b50565b5f813590506123528161232e565b92915050565b5f6020828403121561236d5761236c612069565b5b5f61237a84828501612344565b91505092915050565b5f6020828403121561239857612397612069565b5b5f6123a584828501612280565b91505092915050565b6123b7816121b4565b82525050565b5f6020820190506123d05f8301846123ae565b92915050565b5f5f604083850312156123ec576123eb612069565b5b5f6123f9858286016121d3565b925050602061240a85828601612280565b9150509250929050565b5f5ffd5b5f5ffd5b7f4e487b71000000000000000000000000000000000000000000000000000000005f52604160045260245ffd5b6124528261214c565b810181811067ffffffffffffffff821117156124715761247061241c565b5b80604052505050565b5f612483612060565b905061248f8282612449565b919050565b5f67ffffffffffffffff8211156124ae576124ad61241c565b5b6124b78261214c565b9050602081019050919050565b828183375f83830152505050565b5f6124e46124df84612494565b61247a565b905082815260208101848484011115612500576124ff612418565b5b61250b8482856124c4565b509392505050565b5f82601f83011261252757612526612414565b5b81356125378482602086016124d2565b91505092915050565b5f6020828403121561255557612554612069565b5b5f82013567ffffffffffffffff8111156125725761257161206d565b5b61257e84828501612513565b91505092915050565b5f61ffff82169050919050565b61259d81612587565b82525050565b5f6020820190506125b65f830184612594565b92915050565b6125c5816120f1565b81146125cf575f5ffd5b50565b5f813590506125e0816125bc565b92915050565b5f5f604083850312156125fc576125fb612069565b5b5f61260985828601612280565b925050602061261a858286016125d2565b9150509250929050565b5f67ffffffffffffffff82111561263e5761263d61241c565b5b6126478261214c565b9050602081019050919050565b5f61266661266184612624565b61247a565b90508281526020810184848401111561268257612681612418565b5b61268d8482856124c4565b509392505050565b5f82601f8301126126a9576126a8612414565b5b81356126b9848260208601612654565b91505092915050565b5f5f5f5f608085870312156126da576126d9612069565b5b5f6126e787828801612280565b94505060206126f887828801612280565b9350506040612709878288016121d3565b925050606085013567ffffffffffffffff81111561272a5761272961206d565b5b61273687828801612695565b91505092959194509250565b61274b81612322565b82525050565b5f6020820190506127645f830184612742565b92915050565b5f5f604083850312156127805761277f612069565b5b5f61278d858286016121d3565b925050602083013567ffffffffffffffff8111156127ae576127ad61206d565b5b6127ba85828601612513565b9150509250929050565b5f5f604083850312156127da576127d9612069565b5b5f6127e785828601612280565b92505060206127f885828601612280565b9150509250929050565b5f5f6040838503121561281857612817612069565b5b5f612825858286016121d3565b925050602061283685828601612344565b9150509250929050565b61284981612587565b8114612853575f5ffd5b50565b5f8135905061286481612840565b92915050565b5f5f5f5f6080858703121561288257612881612069565b5b5f61288f87828801612280565b945050602085013567ffffffffffffffff8111156128b0576128af61206d565b5b6128bc87828801612513565b93505060406128cd87828801612856565b92505060606128de87828801612344565b91505092959194509250565b5f5f60408385031215612900576128ff612069565b5b5f61290d858286016121d3565b925050602061291e858286016125d2565b9150509250929050565b7f4e487b71000000000000000000000000000000000000000000000000000000005f52602260045260245ffd5b5f600282049050600182168061296c57607f821691505b60208210810361297f5761297e612928565b5b50919050565b5f6060820190506129985f830186612242565b6129a560208301856123ae565b6129b26040830184612242565b949350505050565b7f546f6b656e2069732064656163746976617465640000000000000000000000005f82015250565b5f6129ee60148361212e565b91506129f9826129ba565b602082019050919050565b5f6020820190508181035f830152612a1b816129e2565b9050919050565b7f4e6f207065726d697373696f6e20746f2072656d696e740000000000000000005f82015250565b5f612a5660178361212e565b9150612a6182612a22565b602082019050919050565b5f6020820190508181035f830152612a8381612a4a565b9050919050565b5f606082019050612a9d5f8301866123ae565b612aaa6020830185612242565b612ab76040830184612242565b949350505050565b5f819050815f5260205f209050919050565b5f6020601f8301049050919050565b5f82821b905092915050565b5f60088302612b1b7fffffffffffffffffffffffffffffffffffffffffffffffffffffffffffffffff82612ae0565b612b258683612ae0565b95508019841693508086168417925050509392505050565b5f819050919050565b5f612b60612b5b612b56846121b4565b612b3d565b6121b4565b9050919050565b5f819050919050565b612b7983612b46565b612b8d612b8582612b67565b848454612aec565b825550505050565b5f5f905090565b612ba4612b95565b612baf818484612b70565b505050565b5b81811015612bd257612bc75f82612b9c565b600181019050612bb5565b5050565b601f821115612c1757612be881612abf565b612bf184612ad1565b81016020851015612c00578190505b612c14612c0c85612ad1565b830182612bb4565b50505b505050565b5f82821c905092915050565b5f612c375f1984600802612c1c565b1980831691505092915050565b5f612c4f8383612c28565b9150826002028217905092915050565b612c6882612124565b67ffffffffffffffff811115612c8157612c8061241c565b5b612c8b8254612955565b612c96828285612bd6565b5f60209050601f831160018114612cc7575f8415612cb5578287015190505b612cbf8582612c44565b865550612d26565b601f198416612cd586612abf565b5f5b82811015612cfc57848901518255600182019150602085019450602081019050612cd7565b86831015612d195784890151612d15601f891682612c28565b8355505b6001600288020188555050505b505050505050565b5f8154612d3a81612955565b612d44818661212e565b9450600182165f8114612d5e5760018114612d7457612da6565b60ff198316865281151560200286019350612da6565b612d7d85612abf565b5f5b83811015612d9e57815481890152600182019150602081019050612d7f565b808801955050505b50505092915050565b5f6020820190508181035f830152612dc78184612d2e565b905092915050565b5f81905092915050565b5f612de382612124565b612ded8185612dcf565b9350612dfd81856020860161213e565b80840191505092915050565b5f612e148285612dd9565b9150612e208284612dd9565b91508190509392505050565b5f606082019050612e3f5f8301866123ae565b612e4c6020830185612742565b612e596040830184612742565b949350505050565b7f4e487b71000000000000000000000000000000000000000000000000000000005f52601160045260245ffd5b5f612e98826121b4565b91507fffffffffffffffffffffffffffffffffffffffffffffffffffffffffffffffff8203612eca57612ec9612e61565b5b600182019050919050565b5f81519050919050565b5f82825260208201905092915050565b5f612ef982612ed5565b612f038185612edf565b9350612f1381856020860161213e565b612f1c8161214c565b840191505092915050565b5f608082019050612f3a5f830187612242565b612f476020830186612242565b612f5460408301856123ae565b8181036060830152612f668184612eef565b905095945050505050565b5f81519050612f7f8161209c565b92915050565b5f60208284031215612f9a57612f99612069565b5b5f612fa784828501612f71565b91505092915050565b5f604082019050612fc35f830185612242565b612fd060208301846123ae565b9392505050565b7f4e487b71000000000000000000000000000000000000000000000000000000005f52601260045260245ffdfea264697066735822122088c18719e215f5709027ccccd853e3eef9924a8e796463e18a4a22de6af1951a64736f6c634300081c0033","linkReferences":{}},"methodIdentifiers":{"approve(address,uint256)":"095ea7b3","balanceOf(address)":"70a08231","changeOikosTokenURI(uint256,string)":"e492ee2f","contractURI()":"e8a3d485","createNewOikosToken(address,string,uint16,uint8)":"fa6df37f","getApproved(uint256)":"081812fc","getOikosStatus(uint256)":"e1eece59","getParentPolis(uint256)":"9d2dbfaa","isApprovedForAll(address,address)":"e985e9c5","name()":"06fdde03","owner()":"8da5cb5b","ownerOf(uint256)":"6352211e","remintOikosToken(uint256,address)":"819c9060","renounceOwnership()":"715018a6","safeTransferFrom(address,address,uint256)":"42842e0e","safeTransferFrom(address,address,uint256,bytes)":"b88d4fde","setApprovalForAll(address,bool)":"a22cb465","setContractURI(string)":"938e3d7b","setOikosStatus(uint256,uint8)":"ecde03c5","setRemintingPermission(uint256,bool)":"fe316c7d","setStatusNum(uint8)":"57a03e7a","supportsInterface(bytes4)":"01ffc9a7","symbol()":"95d89b41","tokenURI(uint256)":"c87b56dd","transferFrom(address,address,uint256)":"23b872dd","transferOwnership(address)":"f2fde38b"},"id":20}