{"abi":[{"type":"constructor","inputs":[{"name":"_initContractURI","type":"string","internalType":"string"}],"stateMutability":"nonpayable"},{"type":"function","name":"approve","inputs":[{"name":"to","type":"address","internalType":"address"},{"name":"tokenId","type":"uint256","internalType":"uint256"}],"outputs":[],"stateMutability":"nonpayable"},{"type":"function","name":"balanceOf","inputs":[{"name":"owner","type":"address","internalType":"address"}],"outputs":[{"name":"","type":"uint256","internalType":"uint256"}],"stateMutability":"view"},{"type":"function","name":"changeOikosTokenURI","inputs":[{"name":"_oikosId","type":"uint256","internalType":"uint256"},{"name":"_tokenURI","type":"string","internalType":"string"}],"outputs":[],"stateMutability":"nonpayable"},{"type":"function","name":"contractURI","inputs":[],"outputs":[{"name":"","type":"string","internalType":"string"}],"stateMutability":"view"},{"type":"function","name":"createNewOikosToken","inputs":[{"name":"_to","type":"address","internalType":"address"},{"name":"_tokenURI","type":"string","internalType":"string"},{"name":"_parentPolisId","type":"uint16","internalType":"uint16"},{"name":"_status","type":"uint8","internalType":"uint8"}],"outputs":[],"stateMutability":"nonpayable"},{"type":"function","name":"createNewPolis","inputs":[{"name":"_parentUnityId","type":"uint8","internalType":"uint8"}],"outputs":[],"stateMutability":"nonpayable"},{"type":"function","name":"getApproved","inputs":[{"name":"tokenId","type":"uint256","internalType":"uint256"}],"outputs":[{"name":"","type":"address","internalType":"address"}],"stateMutability":"view"},{"type":"function","name":"getOikosList","inputs":[{"name":"_polisId","type":"uint16","internalType":"uint16"},{"name":"_nOikos","type":"uint16","internalType":"uint16"},{"name":"_minStatus","type":"uint8","internalType":"uint8"},{"name":"_maxStatus","type":"uint8","internalType":"uint8"}],"outputs":[{"name":"","type":"uint256[]","internalType":"uint256[]"}],"stateMutability":"view"},{"type":"function","name":"getOikosStatus","inputs":[{"name":"_oikosId","type":"uint256","internalType":"uint256"}],"outputs":[{"name":"","type":"uint8","internalType":"uint8"}],"stateMutability":"view"},{"type":"function","name":"getParentPolis","inputs":[{"name":"_oikosId","type":"uint256","internalType":"uint256"}],"outputs":[{"name":"","type":"uint16","internalType":"uint16"}],"stateMutability":"view"},{"type":"function","name":"getParentUnity","inputs":[{"name":"_polisId","type":"uint16","internalType":"uint16"}],"outputs":[{"name":"","type":"uint8","internalType":"uint8"}],"stateMutability":"view"},{"type":"function","name":"isApprovedForAll","inputs":[{"name":"owner","type":"address","internalType":"address"},{"name":"operator","type":"address","internalType":"address"}],"outputs":[{"name":"","type":"bool","internalType":"bool"}],"stateMutability":"view"},{"type":"function","name":"name","inputs":[],"outputs":[{"name":"","type":"string","internalType":"string"}],"stateMutability":"view"},{"type":"function","name":"nextPolisId","inputs":[],"outputs":[{"name":"","type":"uint16","internalType":"uint16"}],"stateMutability":"view"},{"type":"function","name":"owner","inputs":[],"outputs":[{"name":"","type":"address","internalType":"address"}],"stateMutability":"view"},{"type":"function","name":"ownerOf","inputs":[{"name":"tokenId","type":"uint256","internalType":"uint256"}],"outputs":[{"name":"","type":"address","internalType":"address"}],"stateMutability":"view"},{"type":"function","name":"remintOikosToken","inputs":[{"name":"_oikosId","type":"uint256","internalType":"uint256"},{"name":"_newOwnerAddress","type":"address","internalType":"address"}],"outputs":[],"stateMutability":"nonpayable"},{"type":"function","name":"renounceOwnership","inputs":[],"outputs":[],"stateMutability":"nonpayable"},{"type":"function","name":"safeTransferFrom","inputs":[{"name":"from","type":"address","internalType":"address"},{"name":"to","type":"address","internalType":"address"},{"name":"tokenId","type":"uint256","internalType":"uint256"}],"outputs":[],"stateMutability":"nonpayable"},{"type":"function","name":"safeTransferFrom","inputs":[{"name":"from","type":"address","internalType":"address"},{"name":"to","type":"address","internalType":"address"},{"name":"tokenId","type":"uint256","internalType":"uint256"},{"name":"data","type":"bytes","internalType":"bytes"}],"outputs":[],"stateMutability":"nonpayable"},{"type":"function","name":"setApprovalForAll","inputs":[{"name":"operator","type":"address","internalType":"address"},{"name":"approved","type":"bool","internalType":"bool"}],"outputs":[],"stateMutability":"nonpayable"},{"type":"function","name":"setContractURI","inputs":[{"name":"_newContractURI","type":"string","internalType":"string"}],"outputs":[],"stateMutability":"nonpayable"},{"type":"function","name":"setOikosStatus","inputs":[{"name":"_oikosId","type":"uint256","internalType":"uint256"},{"name":"_newStatus","type":"uint8","internalType":"uint8"}],"outputs":[],"stateMutability":"nonpayable"},{"type":"function","name":"setParentUnity","inputs":[{"name":"_polisId","type":"uint16","internalType":"uint16"},{"name":"_parentUnityId","type":"uint8","internalType":"uint8"}],"outputs":[],"stateMutability":"nonpayable"},{"type":"function","name":"setRemintingPermission","inputs":[{"name":"_oikosId","type":"uint256","internalType":"uint256"},{"name":"_perm","type":"bool","internalType":"bool"}],"outputs":[],"stateMutability":"nonpayable"},{"type":"function","name":"setStatusNum","inputs":[{"name":"_newStatusNum","type":"uint8","internalType":"uint8"}],"outputs":[],"stateMutability":"nonpayable"},{"type":"function","name":"supportsInterface","inputs":[{"name":"interfaceId","type":"bytes4","internalType":"bytes4"}],"outputs":[{"name":"","type":"bool","internalType":"bool"}],"stateMutability":"view"},{"type":"function","name":"symbol","inputs":[],"outputs":[{"name":"","type":"string","internalType":"string"}],"stateMutability":"view"},{"type":"function","name":"tokenURI","inputs":[{"name":"tokenId","type":"uint256","internalType":"uint256"}],"outputs":[{"name":"","type":"string","internalType":"string"}],"stateMutability":"view"},{"type":"function","name":"transferFrom","inputs":[{"name":"from","type":"address","internalType":"address"},{"name":"to","type":"address","internalType":"address"},{"name":"tokenId","type":"uint256","internalType":"uint256"}],"outputs":[],"stateMutability":"nonpayable"},{"type":"function","name":"transferOwnership","inputs":[{"name":"newOwner","type":"address","internalType":"address"}],"outputs":[],"stateMutability":"nonpayable"},{"type":"event","name":"Approval","inputs":[{"name":"owner","type":"address","indexed":true,"internalType":"address"},{"name":"approved","type":"address","indexed":true,"internalType":"address"},{"name":"tokenId","type":"uint256","indexed":true,"internalType":"uint256"}],"anonymous":false},{"type":"event","name":"ApprovalForAll","inputs":[{"name":"owner","type":"address","indexed":true,"internalType":"address"},{"name":"operator","type":"address","indexed":true,"internalType":"address"},{"name":"approved","type":"bool","indexed":false,"internalType":"bool"}],"anonymous":false},{"type":"event","name":"BatchMetadataUpdate","inputs":[{"name":"_fromTokenId","type":"uint256","indexed":false,"internalType":"uint256"},{"name":"_toTokenId","type":"uint256","indexed":false,"internalType":"uint256"}],"anonymous":false},{"type":"event","name":"ContractURIUpdated","inputs":[{"name":"newContractURI","type":"string","indexed":false,"internalType":"string"}],"anonymous":false},{"type":"event","name":"MetadataUpdate","inputs":[{"name":"_tokenId","type":"uint256","indexed":false,"internalType":"uint256"}],"anonymous":false},{"type":"event","name":"NewPolis","inputs":[{"name":"polisId","type":"uint16","indexed":false,"internalType":"uint16"},{"name":"parentUnityId","type":"uint8","indexed":false,"internalType":"uint8"}],"anonymous":false},{"type":"event","name":"OikosStatusChanging","inputs":[{"name":"oikosId","type":"uint256","indexed":false,"internalType":"uint256"},{"name":"oldStatus","type":"uint8","indexed":false,"internalType":"uint8"},{"name":"newStatus","type":"uint8","indexed":false,"internalType":"uint8"}],"anonymous":false},{"type":"event","name":"OikosTokenReminting","inputs":[{"name":"oikosId","type":"uint256","indexed":false,"internalType":"uint256"},{"name":"oldOwnerAddress","type":"address","indexed":false,"internalType":"address"},{"name":"newOwnerAddress","type":"address","indexed":false,"internalType":"address"}],"anonymous":false},{"type":"event","name":"OwnershipTransferred","inputs":[{"name":"previousOwner","type":"address","indexed":true,"internalType":"address"},{"name":"newOwner","type":"address","indexed":true,"internalType":"address"}],"anonymous":false},{"type":"event","name":"ParentUnityChanging","inputs":[{"name":"polisId","type":"uint16","indexed":false,"internalType":"uint16"},{"name":"oldParentUnityId","type":"uint8","indexed":false,"internalType":"uint8"},{"name":"newParentUnityId","type":"uint8","indexed":false,"internalType":"uint8"}],"anonymous":false},{"type":"event","name":"Transfer","inputs":[{"name":"from","type":"address","indexed":true,"internalType":"address"},{"name":"to","type":"address","indexed":true,"internalType":"address"},{"name":"tokenId","type":"uint256","indexed":true,"internalType":"uint256"}],"anonymous":false},{"type":"error","name":"ERC721IncorrectOwner","inputs":[{"name":"sender","type":"address","internalType":"address"},{"name":"tokenId","type":"uint256","internalType":"uint256"},{"name":"owner","type":"address","internalType":"address"}]},{"type":"error","name":"ERC721InsufficientApproval","inputs":[{"name":"operator","type":"address","internalType":"address"},{"name":"tokenId","type":"uint256","internalType":"uint256"}]},{"type":"error","name":"ERC721InvalidApprover","inputs":[{"name":"approver","type":"address","internalType":"address"}]},{"type":"error","name":"ERC721InvalidOperator","inputs":[{"name":"operator","type":"address","internalType":"address"}]},{"type":"error","name":"ERC721InvalidOwner","inputs":[{"name":"owner","type":"address","internalType":"address"}]},{"type":"error","name":"ERC721InvalidReceiver","inputs":[{"name":"receiver","type":"address","internalType":"address"}]},{"type":"error","name":"ERC721InvalidSender","inputs":[{"name":"sender","type":"address","internalType":"address"}]},{"type":"error","name":"ERC721NonexistentToken","inputs":[{"name":"tokenId","type":"uint256","internalType":"uint256"}]},{"type":"error","name":"OwnableInvalidOwner","inputs":[{"name":"owner","type":"address","internalType":"address"}]},{"type":"error","name":"OwnableUnauthorizedAccount","inputs":[{"name":"account","type":"address","internalType":"address"}]}],"bytecode":{"object":"0x60806040526004600b5f6101000a81548160ff021916908360ff16021790555034801561002a575f5ffd5b50604051613e0a380380613e0a833981810160405281019061004c9190610392565b80336040518060400160405280600a81526020017f4f696b6f73546f6b656e000000000000000000000000000000000000000000008152506040518060400160405280600481526020017f4f4b535400000000000000000000000000000000000000000000000000000000815250815f90816100c891906105e9565b5080600190816100d891906105e9565b5050505f73ffffffffffffffffffffffffffffffffffffffff168173ffffffffffffffffffffffffffffffffffffffff160361014b575f6040517f1e4fbdf700000000000000000000000000000000000000000000000000000000815260040161014291906106f7565b60405180910390fd5b61015a8161018260201b60201c565b50806009908161016a91906105e9565b505080600f908161017b91906105e9565b5050610710565b5f60075f9054906101000a900473ffffffffffffffffffffffffffffffffffffffff1690508160075f6101000a81548173ffffffffffffffffffffffffffffffffffffffff021916908373ffffffffffffffffffffffffffffffffffffffff1602179055508173ffffffffffffffffffffffffffffffffffffffff168173ffffffffffffffffffffffffffffffffffffffff167f8be0079c531659141344cd1fd0a4f28419497f9722a3daafe3b4186f6b6457e060405160405180910390a35050565b5f604051905090565b5f5ffd5b5f5ffd5b5f5ffd5b5f5ffd5b5f601f19601f8301169050919050565b7f4e487b71000000000000000000000000000000000000000000000000000000005f52604160045260245ffd5b6102a48261025e565b810181811067ffffffffffffffff821117156102c3576102c261026e565b5b80604052505050565b5f6102d5610245565b90506102e1828261029b565b919050565b5f67ffffffffffffffff821115610300576102ff61026e565b5b6103098261025e565b9050602081019050919050565b8281835e5f83830152505050565b5f610336610331846102e6565b6102cc565b9050828152602081018484840111156103525761035161025a565b5b61035d848285610316565b509392505050565b5f82601f83011261037957610378610256565b5b8151610389848260208601610324565b91505092915050565b5f602082840312156103a7576103a661024e565b5b5f82015167ffffffffffffffff8111156103c4576103c3610252565b5b6103d084828501610365565b91505092915050565b5f81519050919050565b7f4e487b71000000000000000000000000000000000000000000000000000000005f52602260045260245ffd5b5f600282049050600182168061042757607f821691505b60208210810361043a576104396103e3565b5b50919050565b5f819050815f5260205f209050919050565b5f6020601f8301049050919050565b5f82821b905092915050565b5f6008830261049c7fffffffffffffffffffffffffffffffffffffffffffffffffffffffffffffffff82610461565b6104a68683610461565b95508019841693508086168417925050509392505050565b5f819050919050565b5f819050919050565b5f6104ea6104e56104e0846104be565b6104c7565b6104be565b9050919050565b5f819050919050565b610503836104d0565b61051761050f826104f1565b84845461046d565b825550505050565b5f5f905090565b61052e61051f565b6105398184846104fa565b505050565b5b8181101561055c576105515f82610526565b60018101905061053f565b5050565b601f8211156105a15761057281610440565b61057b84610452565b8101602085101561058a578190505b61059e61059685610452565b83018261053e565b50505b505050565b5f82821c905092915050565b5f6105c15f19846008026105a6565b1980831691505092915050565b5f6105d983836105b2565b9150826002028217905092915050565b6105f2826103d9565b67ffffffffffffffff81111561060b5761060a61026e565b5b6106158254610410565b610620828285610560565b5f60209050601f831160018114610651575f841561063f578287015190505b61064985826105ce565b8655506106b0565b601f19841661065f86610440565b5f5b8281101561068657848901518255600182019150602085019450602081019050610661565b868310156106a3578489015161069f601f8916826105b2565b8355505b6001600288020188555050505b505050505050565b5f73ffffffffffffffffffffffffffffffffffffffff82169050919050565b5f6106e1826106b8565b9050919050565b6106f1816106d7565b82525050565b5f60208201905061070a5f8301846106e8565b92915050565b6136ed8061071d5f395ff3fe608060405234801561000f575f5ffd5b50600436106101e3575f3560e01c80638da5cb5b1161010d578063e492ee2f116100a0578063ecde03c51161006f578063ecde03c51461059b578063f2fde38b146105b7578063fa6df37f146105d3578063fe316c7d146105ef576101e3565b8063e492ee2f14610515578063e8a3d48514610531578063e985e9c51461054f578063ea1f00361461057f576101e3565b8063a22cb465116100dc578063a22cb4651461047d578063b88d4fde14610499578063c87b56dd146104b5578063e1eece59146104e5576101e3565b80638da5cb5b146103f5578063938e3d7b1461041357806395d89b411461042f5780639d2dbfaa1461044d576101e3565b80632c0306401161018557806370a082311161015457806370a082311461036f578063715018a61461039f578063819c9060146103a957806382c0f1aa146103c5576101e3565b80632c030640146102d757806342842e0e1461030757806357a03e7a146103235780636352211e1461033f576101e3565b8063081812fc116101c1578063081812fc14610253578063095ea7b31461028357806323b872dd1461029f5780632b0000a4146102bb576101e3565b80630144354e146101e757806301ffc9a71461020557806306fdde0314610235575b5f5ffd5b6101ef61060b565b6040516101fc919061249f565b60405180910390f35b61021f600480360381019061021a919061251e565b61061e565b60405161022c9190612563565b60405180910390f35b61023d61067e565b60405161024a91906125ec565b60405180910390f35b61026d6004803603810190610268919061263f565b61070d565b60405161027a91906126a9565b60405180910390f35b61029d600480360381019061029891906126ec565b610728565b005b6102b960048036038101906102b4919061272a565b61073e565b005b6102d560048036038101906102d091906127b0565b61083d565b005b6102f160048036038101906102ec9190612805565b61090a565b6040516102fe9190612920565b60405180910390f35b610321600480360381019061031c919061272a565b610a75565b005b61033d600480360381019061033891906127b0565b610a94565b005b6103596004803603810190610354919061263f565b610ab9565b60405161036691906126a9565b60405180910390f35b61038960048036038101906103849190612940565b610aca565b604051610396919061297a565b60405180910390f35b6103a7610b80565b005b6103c360048036038101906103be9190612993565b610b93565b005b6103df60048036038101906103da91906129d1565b610d25565b6040516103ec9190612a0b565b60405180910390f35b6103fd610d53565b60405161040a91906126a9565b60405180910390f35b61042d60048036038101906104289190612b50565b610d7b565b005b610437610dce565b60405161044491906125ec565b60405180910390f35b6104676004803603810190610462919061263f565b610e5e565b604051610474919061249f565b60405180910390f35b61049760048036038101906104929190612bc1565b610e85565b005b6104b360048036038101906104ae9190612c9d565b610e9b565b005b6104cf60048036038101906104ca919061263f565b610ec0565b6040516104dc91906125ec565b60405180910390f35b6104ff60048036038101906104fa919061263f565b610fcb565b60405161050c9190612a0b565b60405180910390f35b61052f600480360381019061052a9190612d1d565b610ff1565b005b610539611007565b60405161054691906125ec565b60405180910390f35b61056960048036038101906105649190612d77565b611097565b6040516105769190612563565b60405180910390f35b61059960048036038101906105949190612db5565b611125565b005b6105b560048036038101906105b09190612df3565b6111c2565b005b6105d160048036038101906105cc9190612940565b61129a565b005b6105ed60048036038101906105e89190612e31565b61131e565b005b61060960048036038101906106049190612eb1565b6113ed565b005b600e5f9054906101000a900461ffff1681565b5f634906490660e01b7bffffffffffffffffffffffffffffffffffffffffffffffffffffffff1916827bffffffffffffffffffffffffffffffffffffffffffffffffffffffff19161480610677575061067682611458565b5b9050919050565b60605f805461068c90612f1c565b80601f01602080910402602001604051908101604052809291908181526020018280546106b890612f1c565b80156107035780601f106106da57610100808354040283529160200191610703565b820191905f5260205f20905b8154815290600101906020018083116106e657829003601f168201915b5050505050905090565b5f61071782611539565b50610721826115bf565b9050919050565b61073a82826107356115f8565b6115ff565b5050565b5f73ffffffffffffffffffffffffffffffffffffffff168273ffffffffffffffffffffffffffffffffffffffff16036107ae575f6040517f64a0ae920000000000000000000000000000000000000000000000000000000081526004016107a591906126a9565b60405180910390fd5b5f6107c183836107bc6115f8565b611611565b90508373ffffffffffffffffffffffffffffffffffffffff168173ffffffffffffffffffffffffffffffffffffffff1614610837578382826040517f64283d7b00000000000000000000000000000000000000000000000000000000815260040161082e93929190612f4c565b60405180910390fd5b50505050565b61084561181c565b8060105f600e5f9054906101000a900461ffff1661ffff1661ffff1681526020019081526020015f205f6101000a81548160ff021916908360ff1602179055507f535d119d316f94f116c98ce13450d6b6cf15678d5de662730b341ef7f9a233e4600e5f9054906101000a900461ffff16826040516108c5929190612f81565b60405180910390a1600e5f81819054906101000a900461ffff16809291906108ec90612fd5565b91906101000a81548161ffff021916908361ffff1602179055505050565b60605f8461ffff1667ffffffffffffffff81111561092b5761092a612a2c565b5b6040519080825280602002602001820160405280156109595781602001602082028036833780820191505090505b5090505f5f90505f5f90505b6008548163ffffffff161015610a67578761ffff16600a5f8363ffffffff1681526020019081526020015f205f9054906101000a900461ffff1661ffff161480156109d957508560ff16600c5f8363ffffffff1681526020019081526020015f205f9054906101000a900460ff1660ff1610155b8015610a0e57508460ff16600c5f8363ffffffff1681526020019081526020015f205f9054906101000a900460ff1660ff1611155b15610a48578063ffffffff16838381518110610a2d57610a2c612ffe565b5b6020026020010181815250508180610a449061302b565b9250505b8661ffff16820315610a67578080610a5f90613081565b915050610965565b508192505050949350505050565b610a8f83838360405180602001604052805f815250610e9b565b505050565b610a9c61181c565b80600b5f6101000a81548160ff021916908360ff16021790555050565b5f610ac382611539565b9050919050565b5f5f73ffffffffffffffffffffffffffffffffffffffff168273ffffffffffffffffffffffffffffffffffffffff1603610b3b575f6040517f89c62b64000000000000000000000000000000000000000000000000000000008152600401610b3291906126a9565b60405180910390fd5b60035f8373ffffffffffffffffffffffffffffffffffffffff1673ffffffffffffffffffffffffffffffffffffffff1681526020019081526020015f20549050919050565b610b8861181c565b610b915f6118a3565b565b610b9b61181c565b5f600c5f8481526020019081526020015f205f9054906101000a900460ff1660ff1603610bfd576040517f08c379a0000000000000000000000000000000000000000000000000000000008152600401610bf4906130f6565b60405180910390fd5b60011515600d5f8481526020019081526020015f205f9054906101000a900460ff16151514610c61576040517f08c379a0000000000000000000000000000000000000000000000000000000008152600401610c589061315e565b60405180910390fd5b5f600c5f8481526020019081526020015f205f9054906101000a900460ff1690507f3b8233e6589b3b5435123516925829f1802f7ff9b3572e670c2fca1412f5972483610cad85610ab9565b84604051610cbd9392919061317c565b60405180910390a15f600c5f8581526020019081526020015f205f6101000a81548160ff021916908360ff160217905550610d2082610cfb85610ec0565b600a5f8781526020019081526020015f205f9054906101000a900461ffff168461131e565b505050565b5f60105f8361ffff1661ffff1681526020019081526020015f205f9054906101000a900460ff169050919050565b5f60075f9054906101000a900473ffffffffffffffffffffffffffffffffffffffff16905090565b610d8361181c565b80600f9081610d929190613351565b507f905d981207a7d0b6c62cc46ab0be2a076d0298e4a86d0ab79882dbd01ac37378600f604051610dc391906134a1565b60405180910390a150565b606060018054610ddd90612f1c565b80601f0160208091040260200160405190810160405280929190818152602001828054610e0990612f1c565b8015610e545780601f10610e2b57610100808354040283529160200191610e54565b820191905f5260205f20905b815481529060010190602001808311610e3757829003601f168201915b5050505050905090565b5f600a5f8381526020019081526020015f205f9054906101000a900461ffff169050919050565b610e97610e906115f8565b8383611966565b5050565b610ea684848461073e565b610eba610eb16115f8565b85858585611acf565b50505050565b6060610ecb82611539565b505f60065f8481526020019081526020015f208054610ee990612f1c565b80601f0160208091040260200160405190810160405280929190818152602001828054610f1590612f1c565b8015610f605780601f10610f3757610100808354040283529160200191610f60565b820191905f5260205f20905b815481529060010190602001808311610f4357829003601f168201915b505050505090505f610f70611c7b565b90505f815103610f84578192505050610fc6565b5f82511115610fb8578082604051602001610fa09291906134fb565b60405160208183030381529060405292505050610fc6565b610fc184611c91565b925050505b919050565b5f600c5f8381526020019081526020015f205f9054906101000a900460ff169050919050565b610ff961181c565b6110038282611cf7565b5050565b6060600f805461101690612f1c565b80601f016020809104026020016040519081016040528092919081815260200182805461104290612f1c565b801561108d5780601f106110645761010080835404028352916020019161108d565b820191905f5260205f20905b81548152906001019060200180831161107057829003601f168201915b5050505050905090565b5f60055f8473ffffffffffffffffffffffffffffffffffffffff1673ffffffffffffffffffffffffffffffffffffffff1681526020019081526020015f205f8373ffffffffffffffffffffffffffffffffffffffff1673ffffffffffffffffffffffffffffffffffffffff1681526020019081526020015f205f9054906101000a900460ff16905092915050565b61112d61181c565b7f6ad7c526ea6a1c2cbd7e5dab391dcc9a5d41eb516c062ee57f06b3a17855243a8260105f8561ffff1661ffff1681526020019081526020015f205f9054906101000a900460ff16836040516111859392919061351e565b60405180910390a18060105f8461ffff1661ffff1681526020019081526020015f205f6101000a81548160ff021916908360ff1602179055505050565b6111ca61181c565b5f600c5f8481526020019081526020015f205f9054906101000a900460ff1660ff1611801561120d5750600b5f9054906101000a900460ff1660ff168160ff1611155b611215575f5ffd5b7f7fefc1fb326590a221af1665ec5a63a000e82f6614af1575c970735fb55c33d582600c5f8581526020019081526020015f205f9054906101000a900460ff168360405161126593929190613553565b60405180910390a180600c5f8481526020019081526020015f205f6101000a81548160ff021916908360ff1602179055505050565b6112a261181c565b5f73ffffffffffffffffffffffffffffffffffffffff168173ffffffffffffffffffffffffffffffffffffffff1603611312575f6040517f1e4fbdf700000000000000000000000000000000000000000000000000000000815260040161130991906126a9565b60405180910390fd5b61131b816118a3565b50565b61132661181c565b5f8160ff1611801561134c5750600b5f9054906101000a900460ff1660ff168160ff1611155b801561135857505f8351115b611360575f5ffd5b61136c84600854611d51565b80600c5f60085481526020019081526020015f205f6101000a81548160ff021916908360ff16021790555081600a5f60085481526020019081526020015f205f6101000a81548161ffff021916908361ffff1602179055506113d060085484611cf7565b60085f8154809291906113e29061302b565b919050555050505050565b6113f682610ab9565b73ffffffffffffffffffffffffffffffffffffffff163373ffffffffffffffffffffffffffffffffffffffff161461142c575f5ffd5b80600d5f8481526020019081526020015f205f6101000a81548160ff0219169083151502179055505050565b5f7f80ac58cd000000000000000000000000000000000000000000000000000000007bffffffffffffffffffffffffffffffffffffffffffffffffffffffff1916827bffffffffffffffffffffffffffffffffffffffffffffffffffffffff1916148061152257507f5b5e139f000000000000000000000000000000000000000000000000000000007bffffffffffffffffffffffffffffffffffffffffffffffffffffffff1916827bffffffffffffffffffffffffffffffffffffffffffffffffffffffff1916145b80611532575061153182611d6e565b5b9050919050565b5f5f61154483611dd7565b90505f73ffffffffffffffffffffffffffffffffffffffff168173ffffffffffffffffffffffffffffffffffffffff16036115b657826040517f7e2732890000000000000000000000000000000000000000000000000000000081526004016115ad919061297a565b60405180910390fd5b80915050919050565b5f60045f8381526020019081526020015f205f9054906101000a900473ffffffffffffffffffffffffffffffffffffffff169050919050565b5f33905090565b61160c8383836001611e10565b505050565b5f5f61161c84611dd7565b90505f73ffffffffffffffffffffffffffffffffffffffff168373ffffffffffffffffffffffffffffffffffffffff161461165d5761165c818486611fcf565b5b5f73ffffffffffffffffffffffffffffffffffffffff168173ffffffffffffffffffffffffffffffffffffffff16146116e85761169c5f855f5f611e10565b600160035f8373ffffffffffffffffffffffffffffffffffffffff1673ffffffffffffffffffffffffffffffffffffffff1681526020019081526020015f205f82825403925050819055505b5f73ffffffffffffffffffffffffffffffffffffffff168573ffffffffffffffffffffffffffffffffffffffff161461176757600160035f8773ffffffffffffffffffffffffffffffffffffffff1673ffffffffffffffffffffffffffffffffffffffff1681526020019081526020015f205f82825401925050819055505b8460025f8681526020019081526020015f205f6101000a81548173ffffffffffffffffffffffffffffffffffffffff021916908373ffffffffffffffffffffffffffffffffffffffff160217905550838573ffffffffffffffffffffffffffffffffffffffff168273ffffffffffffffffffffffffffffffffffffffff167fddf252ad1be2c89b69c2b068fc378daa952ba7f163c4a11628f55a4df523b3ef60405160405180910390a4809150509392505050565b6118246115f8565b73ffffffffffffffffffffffffffffffffffffffff16611842610d53565b73ffffffffffffffffffffffffffffffffffffffff16146118a1576118656115f8565b6040517f118cdaa700000000000000000000000000000000000000000000000000000000815260040161189891906126a9565b60405180910390fd5b565b5f60075f9054906101000a900473ffffffffffffffffffffffffffffffffffffffff1690508160075f6101000a81548173ffffffffffffffffffffffffffffffffffffffff021916908373ffffffffffffffffffffffffffffffffffffffff1602179055508173ffffffffffffffffffffffffffffffffffffffff168173ffffffffffffffffffffffffffffffffffffffff167f8be0079c531659141344cd1fd0a4f28419497f9722a3daafe3b4186f6b6457e060405160405180910390a35050565b5f73ffffffffffffffffffffffffffffffffffffffff168273ffffffffffffffffffffffffffffffffffffffff16036119d657816040517f5b08ba180000000000000000000000000000000000000000000000000000000081526004016119cd91906126a9565b60405180910390fd5b8060055f8573ffffffffffffffffffffffffffffffffffffffff1673ffffffffffffffffffffffffffffffffffffffff1681526020019081526020015f205f8473ffffffffffffffffffffffffffffffffffffffff1673ffffffffffffffffffffffffffffffffffffffff1681526020019081526020015f205f6101000a81548160ff0219169083151502179055508173ffffffffffffffffffffffffffffffffffffffff168373ffffffffffffffffffffffffffffffffffffffff167f17307eab39ab6107e8899845ad3d59bd9653f200f220920489ca2b5937696c3183604051611ac29190612563565b60405180910390a3505050565b5f8373ffffffffffffffffffffffffffffffffffffffff163b1115611c74578273ffffffffffffffffffffffffffffffffffffffff1663150b7a02868685856040518563ffffffff1660e01b8152600401611b2d94939291906135da565b6020604051808303815f875af1925050508015611b6857506040513d601f19601f82011682018060405250810190611b659190613638565b60015b611be9573d805f8114611b96576040519150601f19603f3d011682016040523d82523d5f602084013e611b9b565b606091505b505f815103611be157836040517f64a0ae92000000000000000000000000000000000000000000000000000000008152600401611bd891906126a9565b60405180910390fd5b805181602001fd5b63150b7a0260e01b7bffffffffffffffffffffffffffffffffffffffffffffffffffffffff1916817bffffffffffffffffffffffffffffffffffffffffffffffffffffffff191614611c7257836040517f64a0ae92000000000000000000000000000000000000000000000000000000008152600401611c6991906126a9565b60405180910390fd5b505b5050505050565b606060405180602001604052805f815250905090565b6060611c9c82611539565b505f611ca6611c7b565b90505f815111611cc45760405180602001604052805f815250611cef565b80611cce84612092565b604051602001611cdf9291906134fb565b6040516020818303038152906040525b915050919050565b8060065f8481526020019081526020015f209081611d159190613351565b507ff8e1a15aba9398e019f0b49df1a4fde98ee17ae345cb5f6b5e2c27f5033e8ce782604051611d45919061297a565b60405180910390a15050565b611d6a828260405180602001604052805f81525061215c565b5050565b5f7f01ffc9a7000000000000000000000000000000000000000000000000000000007bffffffffffffffffffffffffffffffffffffffffffffffffffffffff1916827bffffffffffffffffffffffffffffffffffffffffffffffffffffffff1916149050919050565b5f60025f8381526020019081526020015f205f9054906101000a900473ffffffffffffffffffffffffffffffffffffffff169050919050565b8080611e4857505f73ffffffffffffffffffffffffffffffffffffffff168273ffffffffffffffffffffffffffffffffffffffff1614155b15611f7a575f611e5784611539565b90505f73ffffffffffffffffffffffffffffffffffffffff168373ffffffffffffffffffffffffffffffffffffffff1614158015611ec157508273ffffffffffffffffffffffffffffffffffffffff168173ffffffffffffffffffffffffffffffffffffffff1614155b8015611ed45750611ed28184611097565b155b15611f1657826040517fa9fbf51f000000000000000000000000000000000000000000000000000000008152600401611f0d91906126a9565b60405180910390fd5b8115611f7857838573ffffffffffffffffffffffffffffffffffffffff168273ffffffffffffffffffffffffffffffffffffffff167f8c5be1e5ebec7d5bd14f71427d1e84f3dd0314c0f7b2291e5b200ac8c7c3b92560405160405180910390a45b505b8360045f8581526020019081526020015f205f6101000a81548173ffffffffffffffffffffffffffffffffffffffff021916908373ffffffffffffffffffffffffffffffffffffffff16021790555050505050565b611fda83838361217f565b61208d575f73ffffffffffffffffffffffffffffffffffffffff168373ffffffffffffffffffffffffffffffffffffffff160361204e57806040517f7e273289000000000000000000000000000000000000000000000000000000008152600401612045919061297a565b60405180910390fd5b81816040517f177e802f000000000000000000000000000000000000000000000000000000008152600401612084929190613663565b60405180910390fd5b505050565b60605f60016120a08461223f565b0190505f8167ffffffffffffffff8111156120be576120bd612a2c565b5b6040519080825280601f01601f1916602001820160405280156120f05781602001600182028036833780820191505090505b5090505f82602001820190505b600115612151578080600190039150507f3031323334353637383961626364656600000000000000000000000000000000600a86061a8153600a85816121465761214561368a565b5b0494505f85036120fd575b819350505050919050565b6121668383612390565b61217a6121716115f8565b5f858585611acf565b505050565b5f5f73ffffffffffffffffffffffffffffffffffffffff168373ffffffffffffffffffffffffffffffffffffffff161415801561223657508273ffffffffffffffffffffffffffffffffffffffff168473ffffffffffffffffffffffffffffffffffffffff1614806121f757506121f68484611097565b5b8061223557508273ffffffffffffffffffffffffffffffffffffffff1661221d836115bf565b73ffffffffffffffffffffffffffffffffffffffff16145b5b90509392505050565b5f5f5f90507a184f03e93ff9f4daa797ed6e38ed64bf6a1f010000000000000000831061229b577a184f03e93ff9f4daa797ed6e38ed64bf6a1f01000000000000000083816122915761229061368a565b5b0492506040810190505b6d04ee2d6d415b85acef810000000083106122d8576d04ee2d6d415b85acef810000000083816122ce576122cd61368a565b5b0492506020810190505b662386f26fc10000831061230757662386f26fc1000083816122fd576122fc61368a565b5b0492506010810190505b6305f5e1008310612330576305f5e10083816123265761232561368a565b5b0492506008810190505b612710831061235557612710838161234b5761234a61368a565b5b0492506004810190505b60648310612378576064838161236e5761236d61368a565b5b0492506002810190505b600a8310612387576001810190505b80915050919050565b5f73ffffffffffffffffffffffffffffffffffffffff168273ffffffffffffffffffffffffffffffffffffffff1603612400575f6040517f64a0ae920000000000000000000000000000000000000000000000000000000081526004016123f791906126a9565b60405180910390fd5b5f61240c83835f611611565b90505f73ffffffffffffffffffffffffffffffffffffffff168173ffffffffffffffffffffffffffffffffffffffff161461247e575f6040517f73c6ac6e00000000000000000000000000000000000000000000000000000000815260040161247591906126a9565b60405180910390fd5b505050565b5f61ffff82169050919050565b61249981612483565b82525050565b5f6020820190506124b25f830184612490565b92915050565b5f604051905090565b5f5ffd5b5f5ffd5b5f7fffffffff0000000000000000000000000000000000000000000000000000000082169050919050565b6124fd816124c9565b8114612507575f5ffd5b50565b5f81359050612518816124f4565b92915050565b5f60208284031215612533576125326124c1565b5b5f6125408482850161250a565b91505092915050565b5f8115159050919050565b61255d81612549565b82525050565b5f6020820190506125765f830184612554565b92915050565b5f81519050919050565b5f82825260208201905092915050565b8281835e5f83830152505050565b5f601f19601f8301169050919050565b5f6125be8261257c565b6125c88185612586565b93506125d8818560208601612596565b6125e1816125a4565b840191505092915050565b5f6020820190508181035f83015261260481846125b4565b905092915050565b5f819050919050565b61261e8161260c565b8114612628575f5ffd5b50565b5f8135905061263981612615565b92915050565b5f60208284031215612654576126536124c1565b5b5f6126618482850161262b565b91505092915050565b5f73ffffffffffffffffffffffffffffffffffffffff82169050919050565b5f6126938261266a565b9050919050565b6126a381612689565b82525050565b5f6020820190506126bc5f83018461269a565b92915050565b6126cb81612689565b81146126d5575f5ffd5b50565b5f813590506126e6816126c2565b92915050565b5f5f60408385031215612702576127016124c1565b5b5f61270f858286016126d8565b92505060206127208582860161262b565b9150509250929050565b5f5f5f60608486031215612741576127406124c1565b5b5f61274e868287016126d8565b935050602061275f868287016126d8565b92505060406127708682870161262b565b9150509250925092565b5f60ff82169050919050565b61278f8161277a565b8114612799575f5ffd5b50565b5f813590506127aa81612786565b92915050565b5f602082840312156127c5576127c46124c1565b5b5f6127d28482850161279c565b91505092915050565b6127e481612483565b81146127ee575f5ffd5b50565b5f813590506127ff816127db565b92915050565b5f5f5f5f6080858703121561281d5761281c6124c1565b5b5f61282a878288016127f1565b945050602061283b878288016127f1565b935050604061284c8782880161279c565b925050606061285d8782880161279c565b91505092959194509250565b5f81519050919050565b5f82825260208201905092915050565b5f819050602082019050919050565b61289b8161260c565b82525050565b5f6128ac8383612892565b60208301905092915050565b5f602082019050919050565b5f6128ce82612869565b6128d88185612873565b93506128e383612883565b805f5b838110156129135781516128fa88826128a1565b9750612905836128b8565b9250506001810190506128e6565b5085935050505092915050565b5f6020820190508181035f83015261293881846128c4565b905092915050565b5f60208284031215612955576129546124c1565b5b5f612962848285016126d8565b91505092915050565b6129748161260c565b82525050565b5f60208201905061298d5f83018461296b565b92915050565b5f5f604083850312156129a9576129a86124c1565b5b5f6129b68582860161262b565b92505060206129c7858286016126d8565b9150509250929050565b5f602082840312156129e6576129e56124c1565b5b5f6129f3848285016127f1565b91505092915050565b612a058161277a565b82525050565b5f602082019050612a1e5f8301846129fc565b92915050565b5f5ffd5b5f5ffd5b7f4e487b71000000000000000000000000000000000000000000000000000000005f52604160045260245ffd5b612a62826125a4565b810181811067ffffffffffffffff82111715612a8157612a80612a2c565b5b80604052505050565b5f612a936124b8565b9050612a9f8282612a59565b919050565b5f67ffffffffffffffff821115612abe57612abd612a2c565b5b612ac7826125a4565b9050602081019050919050565b828183375f83830152505050565b5f612af4612aef84612aa4565b612a8a565b905082815260208101848484011115612b1057612b0f612a28565b5b612b1b848285612ad4565b509392505050565b5f82601f830112612b3757612b36612a24565b5b8135612b47848260208601612ae2565b91505092915050565b5f60208284031215612b6557612b646124c1565b5b5f82013567ffffffffffffffff811115612b8257612b816124c5565b5b612b8e84828501612b23565b91505092915050565b612ba081612549565b8114612baa575f5ffd5b50565b5f81359050612bbb81612b97565b92915050565b5f5f60408385031215612bd757612bd66124c1565b5b5f612be4858286016126d8565b9250506020612bf585828601612bad565b9150509250929050565b5f67ffffffffffffffff821115612c1957612c18612a2c565b5b612c22826125a4565b9050602081019050919050565b5f612c41612c3c84612bff565b612a8a565b905082815260208101848484011115612c5d57612c5c612a28565b5b612c68848285612ad4565b509392505050565b5f82601f830112612c8457612c83612a24565b5b8135612c94848260208601612c2f565b91505092915050565b5f5f5f5f60808587031215612cb557612cb46124c1565b5b5f612cc2878288016126d8565b9450506020612cd3878288016126d8565b9350506040612ce48782880161262b565b925050606085013567ffffffffffffffff811115612d0557612d046124c5565b5b612d1187828801612c70565b91505092959194509250565b5f5f60408385031215612d3357612d326124c1565b5b5f612d408582860161262b565b925050602083013567ffffffffffffffff811115612d6157612d606124c5565b5b612d6d85828601612b23565b9150509250929050565b5f5f60408385031215612d8d57612d8c6124c1565b5b5f612d9a858286016126d8565b9250506020612dab858286016126d8565b9150509250929050565b5f5f60408385031215612dcb57612dca6124c1565b5b5f612dd8858286016127f1565b9250506020612de98582860161279c565b9150509250929050565b5f5f60408385031215612e0957612e086124c1565b5b5f612e168582860161262b565b9250506020612e278582860161279c565b9150509250929050565b5f5f5f5f60808587031215612e4957612e486124c1565b5b5f612e56878288016126d8565b945050602085013567ffffffffffffffff811115612e7757612e766124c5565b5b612e8387828801612b23565b9350506040612e94878288016127f1565b9250506060612ea58782880161279c565b91505092959194509250565b5f5f60408385031215612ec757612ec66124c1565b5b5f612ed48582860161262b565b9250506020612ee585828601612bad565b9150509250929050565b7f4e487b71000000000000000000000000000000000000000000000000000000005f52602260045260245ffd5b5f6002820490506001821680612f3357607f821691505b602082108103612f4657612f45612eef565b5b50919050565b5f606082019050612f5f5f83018661269a565b612f6c602083018561296b565b612f79604083018461269a565b949350505050565b5f604082019050612f945f830185612490565b612fa160208301846129fc565b9392505050565b7f4e487b71000000000000000000000000000000000000000000000000000000005f52601160045260245ffd5b5f612fdf82612483565b915061ffff8203612ff357612ff2612fa8565b5b600182019050919050565b7f4e487b71000000000000000000000000000000000000000000000000000000005f52603260045260245ffd5b5f6130358261260c565b91507fffffffffffffffffffffffffffffffffffffffffffffffffffffffffffffffff820361306757613066612fa8565b5b600182019050919050565b5f63ffffffff82169050919050565b5f61308b82613072565b915063ffffffff82036130a1576130a0612fa8565b5b600182019050919050565b7f546f6b656e2069732064656163746976617465640000000000000000000000005f82015250565b5f6130e0601483612586565b91506130eb826130ac565b602082019050919050565b5f6020820190508181035f83015261310d816130d4565b9050919050565b7f4e6f207065726d697373696f6e20746f2072656d696e740000000000000000005f82015250565b5f613148601783612586565b915061315382613114565b602082019050919050565b5f6020820190508181035f8301526131758161313c565b9050919050565b5f60608201905061318f5f83018661296b565b61319c602083018561269a565b6131a9604083018461269a565b949350505050565b5f819050815f5260205f209050919050565b5f6020601f8301049050919050565b5f82821b905092915050565b5f6008830261320d7fffffffffffffffffffffffffffffffffffffffffffffffffffffffffffffffff826131d2565b61321786836131d2565b95508019841693508086168417925050509392505050565b5f819050919050565b5f61325261324d6132488461260c565b61322f565b61260c565b9050919050565b5f819050919050565b61326b83613238565b61327f61327782613259565b8484546131de565b825550505050565b5f5f905090565b613296613287565b6132a1818484613262565b505050565b5b818110156132c4576132b95f8261328e565b6001810190506132a7565b5050565b601f821115613309576132da816131b1565b6132e3846131c3565b810160208510156132f2578190505b6133066132fe856131c3565b8301826132a6565b50505b505050565b5f82821c905092915050565b5f6133295f198460080261330e565b1980831691505092915050565b5f613341838361331a565b9150826002028217905092915050565b61335a8261257c565b67ffffffffffffffff81111561337357613372612a2c565b5b61337d8254612f1c565b6133888282856132c8565b5f60209050601f8311600181146133b9575f84156133a7578287015190505b6133b18582613336565b865550613418565b601f1984166133c7866131b1565b5f5b828110156133ee578489015182556001820191506020850194506020810190506133c9565b8683101561340b5784890151613407601f89168261331a565b8355505b6001600288020188555050505b505050505050565b5f815461342c81612f1c565b6134368186612586565b9450600182165f8114613450576001811461346657613498565b60ff198316865281151560200286019350613498565b61346f856131b1565b5f5b8381101561349057815481890152600182019150602081019050613471565b808801955050505b50505092915050565b5f6020820190508181035f8301526134b98184613420565b905092915050565b5f81905092915050565b5f6134d58261257c565b6134df81856134c1565b93506134ef818560208601612596565b80840191505092915050565b5f61350682856134cb565b915061351282846134cb565b91508190509392505050565b5f6060820190506135315f830186612490565b61353e60208301856129fc565b61354b60408301846129fc565b949350505050565b5f6060820190506135665f83018661296b565b61357360208301856129fc565b61358060408301846129fc565b949350505050565b5f81519050919050565b5f82825260208201905092915050565b5f6135ac82613588565b6135b68185613592565b93506135c6818560208601612596565b6135cf816125a4565b840191505092915050565b5f6080820190506135ed5f83018761269a565b6135fa602083018661269a565b613607604083018561296b565b818103606083015261361981846135a2565b905095945050505050565b5f81519050613632816124f4565b92915050565b5f6020828403121561364d5761364c6124c1565b5b5f61365a84828501613624565b91505092915050565b5f6040820190506136765f83018561269a565b613683602083018461296b565b9392505050565b7f4e487b71000000000000000000000000000000000000000000000000000000005f52601260045260245ffdfea2646970667358221220e5ee9eb37793dce3c75cb33a153a1b9029d0fffa53ac98c84edcee9dd9b1392c64736f6c634300081c0033","linkReferences":{}},"methodIdentifiers":{"approve(address,uint256)":"095ea7b3","balanceOf(address)":"70a08231","changeOikosTokenURI(uint256,string)":"e492ee2f","contractURI()":"e8a3d485","createNewOikosToken(address,string,uint16,uint8)":"fa6df37f","createNewPolis(uint8)":"2b0000a4","getApproved(uint256)":"081812fc","getOikosList(uint16,uint16,uint8,uint8)":"2c030640","getOikosStatus(uint256)":"e1eece59","getParentPolis(uint256)":"9d2dbfaa","getParentUnity(uint16)":"82c0f1aa","isApprovedForAll(address,address)":"e985e9c5","name()":"06fdde03","nextPolisId()":"0144354e","owner()":"8da5cb5b","ownerOf(uint256)":"6352211e","remintOikosToken(uint256,address)":"819c9060","renounceOwnership()":"715018a6","safeTransferFrom(address,address,uint256)":"42842e0e","safeTransferFrom(address,address,uint256,bytes)":"b88d4fde","setApprovalForAll(address,bool)":"a22cb465","setContractURI(string)":"938e3d7b","setOikosStatus(uint256,uint8)":"ecde03c5","setParentUnity(uint16,uint8)":"ea1f0036","setRemintingPermission(uint256,bool)":"fe316c7d","setStatusNum(uint8)":"57a03e7a","supportsInterface(bytes4)":"01ffc9a7","symbol()":"95d89b41","tokenURI(uint256)":"c87b56dd","transferFrom(address,address,uint256)":"23b872dd","transferOwnership(address)":"f2fde38b"},"id":39}